:020000040800F2
:10000000E818002001010008A90900082D090008CE
:10001000A509000821070008871500080000000056
:100020000000000000000000000000003111000886
:1000300003080008000000003D0A000845120008FF
:100040001B0100081B0100081B010008350E0008F9
:100050001B0100081B0100081B0100081B01000810
:100060001B0100081B0100081B0100081B01000800
:100070001B010008250700081B0100081B010008E0
:100080001B0100081B0100081B0100081B010008E0
:100090001B0100081B0100081B0100081B010008D0
:1000A0001B0100081B0100081B0100081B010008C0
:1000B0001B0100081B0100081B0100081B010008B0
:1000C0001B0100081B0100081B0100081B010008A0
:1000D0001B010008A91200081B0100081B010008F1
:1000E0001B0100081B0100081B010008DFF80CD0F1
:1000F00000F0E0FA004800472D300008E818002022
:100100000648804706480047FEE7FEE7FEE7FEE7B1
:10011000FEE7FEE7FEE7FEE7FEE7FEE7491200081E
:10012000ED0000082DE9F05F0546002092469B4651
:1001300088460646814640241BE0284641464746FD
:10014000224600F026F953465A46C01A914110D370
:1001500011461846224600F00DF92D1A67EB0108EA
:100160004F4622460120002100F004F917EB000958
:100170004E41201EA4F10104DFDC484631462A46E8
:100180004346BDE8F09FD2B201E000F8012B491EC2
:10019000FBD270470022F6E710B513460A46044624
:1001A0001946FFF7F0FF204610BD30B505462A4638
:1001B0000B4612F8010B13F8014B08B1A042F8D01E
:1001C0001CB1002802D06D1CF1E7284630BD421C4E
:1001D00010F8011B0029FBD1801A704730B5054685
:1001E0000020034600E05B1C934205D2EC5CC85C37
:1001F000201A01D1002CF6D130BD2DE9FE4F8046EA
:1002000081EA0300C00F0C46009021F0004123F06A
:100210000045B8EB0200A94105D240462146904670
:100220001C460B46024623F00040104347D0270DE2
:10023000C7F30A00C3F30A510290401A0190402804
:100240006BDAC3F3130040F4801B0098924620B190
:100250000023D2EB030A63EB0B0B01985946C0F164
:100260004002504600F086F806460D465046594674
:10027000019A00F09EF810EB08006141002487EA23
:10028000115284EAE7731A4340D0009A62B3019A8C
:10029000012A4FEA075215DC001B61EB02014FF007
:1002A000004202EA0752CDE90042001C41F58011EC
:1002B00032462B4600F09EF803B0BDE8F08F404672
:1002C0002146F9E7001B61EB0201001C41F5801398
:1002D00000185B412018A2F5001747EB030140EA24
:1002E000D570B6196D4111E06D084FEA360645EA42
:1002F000C0754FEA0752001B61EB0201001C41F57B
:10030000801149084FEA30000019514132462B460E
:1003100003B0BDE8F04F00F05EB800980122400045
:100320000023D0EB020263EBE073009821464FEA12
:10033000E074B8EB000061EB0401E9E783F00043EF
:100340005BE781F0004158E730B50B4601460020DD
:100350002022012409E021FA02F59D4205D303FA87
:1003600002F5491B04FA02F52844151EA2F1010208
:10037000F1DC30BD202A04DB203A00FA02F1002033
:1003800070479140C2F1200320FA03F319439040D3
:100390007047202A04DB203A21FA02F0002170473E
:1003A00021FA02F3D040C2F12002914008431946DD
:1003B0007047202A06DBCB17203A41FA02F043EAC5
:1003C000E07306E041FA02F3D040C2F1200291400E
:1003D00008431946704710B5141E73F1000408DA7B
:1003E000401C41F1000192185B411A4301D120F0F9
:1003F000010010BD2DE9F04D92469B4611B1B1FAB6
:1004000081F202E0B0FA80F220329046FFF7B2FFAC
:1004100004460F4640EA0A0041EA0B0153465A4699
:10042000084313D0114653EA010019D0C8F1400225
:100430005046FFF7AEFF05460E4650465946424627
:10044000FFF798FF084305D0012004E02046394615
:10045000BDE8F08D0020054346EAE0762C433743A3
:100460000A986305E40AA0EB08000022FD0A44EAAA
:1004700047540A3002D500200146E9E7010510196A
:100480006941DDE9084500196941BDE8F04DA2E781
:100490002DE9FE4F81EA030404F0004421F00041FD
:1004A00000944FF0000B23F0004350EA01045ED0AB
:1004B00052EA03045BD0C3F30A54C1F30A552C4437
:1004C000A4F2F3340194A0FB0254C1F3130141F4EC
:1004D0008011C3F3130343F4801301FB024400FBB8
:1004E000034E840A970A44EA815447EA8357A4FBDF
:1004F000076802958D0A05FB07854FEA932C04FBDC
:100500000C542705029D4FEA065847EA1637B5EB0B
:1005100008056EEB070C870E920E47EA811742EA38
:100520008312A7FB0201B6EB0B0164EB00042B0D59
:1005300043EA0C335E1844EB1C50DA465146E7FBA5
:100540000201C5F313044FEA0B3343EA14534FEA95
:100550000432019C43EA0603A4F10C040294009CBB
:10056000CDE900B4FFF746FF03B0BDE8F08F0020EF
:100570000146F9E72DE9F04D81EA030404F0004B50
:1005800021F0004514464FF0000A23F0004150EAE4
:10059000050220D054EA01021DD0C5F30A570246D5
:1005A000C5F31303C1F31300C1F30A5640F48015D9
:1005B00043F48013A7EB0608101BD64608F2FD385B
:1005C00073EB050002D308F1010801E092185B41CA
:1005D000B8F1000F03DA00200146BDE8F08D0020DD
:1005E0004FF48011064684460EE0171B73EB050797
:1005F00005D3121B63EB050306434CEA010C4908C3
:100600004FEA300092185B4150EA0107EDD152EAFF
:10061000030012D082EA040083EA0501084305D0F2
:10062000101BAB4106D20122002306E000224FF04E
:10063000004302E06FF0010253101AEB06004CEB8E
:10064000085110EB0A0041EB0B01BDE8F04DFFF73C
:10065000C2BEC1F30A52C1F3130140F2FF3341F4A9
:1006600080119A4202DA00200146704740F233437B
:100670009A42A2F2334202DC5242FFF78ABEFFF7EF
:1006800079BE000030B5041E71F1000404DB4FF0A8
:100690000044404264EB0101141E73F1000405DBC9
:1006A0001C464FF00043524263EB0403994208BFDB
:1006B000904230BD064C074D06E0E06840F0010373
:1006C00094E8070098471034AC42F6D3FFF712FDC8
:1006D000604F0008804F000810B5012000F000FABC
:1006E000002000F0FDF910BD08B501460020009083
:1006F000034800900098084400900098008808BDC6
:10070000006C004008B500220092044A0092009A52
:1007100002440092009A116008BD0000006C004085
:1007200000BFFEE710B54FF4007000F02DF860B187
:100730004FF4807000F00EF802F040FD10210348E5
:1007400000F0EDF801200249087010BD00080140DA
:100750007400002000F0805111B10349086001E0ED
:100760000249486070470000040402400000024053
:1007700021B1026842F00102026004E002684FF613
:10078000FE731A400260704701460020002201F00B
:10079000805313B1054B1A6801E0054B1A6802EA51
:1007A00001030BB1012000E000207047000402406B
:1007B000000002401AB103680B43036002E00368C3
:1007C0008B430360704710B50022026847F6F07350
:1007D0009A430C6A8B6823430C6923434C69234377
:1007E0008C692343CC6923434C6A23438C6A23439B
:1007F0001A430260CB6843600B6883604B68C36038
:1008000010BD70472DE9F04102460025002600206A
:1008100000230024002791F803C00CF00F0591F885
:1008200003C00CF0100CBCF1000F03D091F802C013
:100830004CEA050591F800C0BCF1000F31D01468F6
:1008400000202BE04FF0010C0CFA00F3B1F800C0CF
:100850000CEA03069E4220D183004FF00F0C0CFAE5
:1008600003F7BC4305FA03FC4CEA040491F803C007
:10087000BCF1280F06D14FF0010C0CFA00FCC2F8B5
:1008800014C00AE091F803C0BCF1480F05D14FF045
:10089000010C0CFA00FCC2F810C0401C0828D1D38F
:1008A0001460B1F800C0BCF1FF0F34DD54680020C3
:1008B0002EE000F1080C4FF0010808FA0CF3B1F833
:1008C00000C00CEA03069E4221D183004FF00F0CBA
:1008D0000CFA03F7BC4305FA03FC4CEA040491F854
:1008E00003C0BCF1280F05D100F1080C08FA0CF880
:1008F000C2F8148091F803C0BCF1480F07D100F191
:10090000080C4FF0010808FA0CF8C2F81080401CDF
:100910000828CED35460BDE8F08141617047016181
:1009200070470AB1016100E04161704700BFFEE716
:100930000146CA1701EB92729210A1EB820292B9A2
:10094000642091FBF0F200FB121050B94FF4C87014
:1009500091FBF0F200FB121008B901207047002053
:10096000FCE70120FAE70020F8E7000008B50121C4
:10097000102000F095F84FF40050ADF80000102062
:100980008DF8030002208DF8020069460448FFF745
:1009900039FF00224FF400510148FFF7C2FF08BDA4
:1009A0000010014000BFFEE77047000070B5002155
:1009B00000230F22C47804B3154C246804F4E064C7
:1009C000C4F5E064210AC1F10403CA40447804FA82
:1009D00003F184781440214309010E4C0678A15597
:1009E000047804F01F050124AC4005786D11AD00BA
:1009F00005F1E025C5F8004109E0047804F01F0581
:100A00000124AC40044D0678761145F8264070BDAF
:100A10000CED00E000E400E080E100E00249014369
:100A2000024A1160704700000000FA050CED00E07A
:100A3000014908627047000000000E427047000044
:100A400029B1064A52690243044B5A6104E0034A41
:100A500052698243014B5A61704700000010024006
:100A600029B1064AD2690243044BDA6104E0034A21
:100A7000D2698243014BDA617047000000100240E6
:100A800029B1064A12690243044B1A6104E0034A81
:100A900012698243014B1A61704700000010024046
:100AA00029B1064A92690243044B9A6104E0034A61
:100AB00092698243014B9A61704700000010024026
:100AC00029B1064AD2680243044BDA6004E0034AC3
:100AD000D2688243014BDA60704700000010024088
:100AE00001490860704700004004424230B50021CF
:100AF0000022002400232D4D6D6805F00C0121B16A
:100B0000042905D0082923D105E0294D056022E0FC
:100B1000274D05601FE0254D6D6805F47012234DCB
:100B20006D6805F48034022505EB92421CB9214D15
:100B3000554305600BE01D4D6D6805F400351DB192
:100B40001C4D5543056002E0194D5543056002E018
:100B5000174D056000BF00BF144D6D6805F0F00132
:100B60000909154D6B5C0568DD4045600F4D6D68EA
:100B700005F4E061090A104D6B5C4568DD40856055
:100B80000A4D6D6805F46051C90A0B4D6B5C4568F0
:100B9000DD40C560054D6D6805F44041890B074D8A
:100BA0006B5CC568B5FBF3F5056130BD0010024014
:100BB00000127A0000093D00000000201000002013
:100BC00010B501460022002300204A11012A02D15B
:100BD000094C236806E0022A02D1074C236A01E08F
:100BE000054C636A01F01F02012494401C400CB1C3
:100BF000012000E0002010BD0010024000210B4A3F
:100C000011700A4A203A82F82010012802D00428E4
:100C100008D103E00121054A117004E00521034ACF
:100C2000117000E000BF00BF7047000020100240BC
:100C300001490860704700003C0442420249096AC9
:100C40000143014A116270470010024002490988BD
:100C50008143014A118070470428004003480088FE
:100C600040F010000149088070470000042800404F
:100C7000034800884FF6EF7108400149088070472B
:100C80000428004070B500260024002500F07AF802
:100C900006463848B6FBF0F437480088A0423CD0FE
:100CA00035490C8040F2B27510E02846FFF740FE4F
:100CB00040B1B4F5B77F02D3A4F5B77404E0681C63
:100CC00085B206E0A4F26D14681C85B2B4F5B67F57
:100CD000EBD800BF29488580002516E02749888881
:100CE000FFF726FE30B1012D04D11D2C01D31D3C90
:100CF00009E00CE02248405DA04203D82048405D56
:100D0000241A00E003E0681C85B21C2CE6D200BF68
:100D1000681C1A498871601CC8711648B6FBF0F14E
:100D200000FB11644FF46160B4FBF0F013490870EC
:100D30004FF46160B4FBF0F100FB11403C21B0FBCB
:100D4000F1F00E4948704FF46160B4FBF0F100FB24
:100D500011403C21B0FBF1F201FB12000749887001
:100D60000B46DA799979988800F028F803490872D7
:100D7000002070BD80510100300000204C01002097
:100D8000C8340008002103480188001F008841EA98
:100D9000004070471C28004001460020064A128887
:100DA0000A40D0B2044A121F12880A4012B108B198
:100DB000012000E00020704704280040F0B5034601
:100DC0000C461546642093FBF0F0C6B2642093FBFA
:100DD000F0F700FB1730C1B2132E02DD01F1640001
:100DE000C1B20846CF1701EB977701EBA707BAB25C
:100DF000072092FBF0F700FB172082B25719601E04
:100E0000DFF82CC01CF80000384482B2CF1701EB89
:100E10009777BF10A1EB87071FB9032C01DA501E8B
:100E200082B2072092FBF0F700FB1720C0B2F0BDA2
:100E3000BC34000810B50120FFF7AEFF08B1FFF782
:100E400021FF0220FFF7A8FF10B10220FFF7FEFEEE
:100E50000520FFF7FBFE00F005F910BD29B1064A99
:100E600012880243044B1A8004E0034A128882432A
:100E7000014B1A8070470000002800401CB5002478
:100E800001214FF0C050FFF7EBFD0120FFF7D0FD2F
:100E90000420FFF729FC45F2500188423FD0FFF7BC
:100EA0001BFC0120FFF7AAFE04E0601CC4B20A206C
:100EB00001F000F94120FFF783FE0028F5D0FA2C5D
:100EC00001DB01201CBD4FF48070FFF7B7FE01204D
:100ED000FFF7AEFE00F0C6F800F0CEF8012108469C
:100EE000FFF7BCFF00F0BEF8FFF7B8FE47F6FF7053
:100EF00000F0A8F800F0B6F8372000210A230222FB
:100F0000CDE900100C2140F2D97000F027F8FFF76E
:100F1000AFFE45F250010420FFF7F4FB07E000F0BC
:100F2000ABF801210846FFF799FF00F09BF800F0AD
:100F300004F8FFF7A7FE0020C4E708B503208DF8EA
:100F4000000000208DF801008DF8020001208DF8CE
:100F500003006846FFF72AFD08BD00002DE9F05F99
:100F600006460F4690469946DDE90AAB002440F25A
:100F7000B270864203DB40F63300864202DD012078
:100F8000BDE8F09F40F2B2750AE02846FFF7D0FCBA
:100F900010B12148044401E020480444681C85B293
:100FA000B542F2DB781EC7B2002510E01C48405D58
:100FB00040F2A321484304EBC0143046FFF7B8FCCD
:100FC00018B1012D01D117480444681C85B2BD42F7
:100FD000ECDBA8F1010040F2A321484304EBC0146C
:100FE000C9EB4910C0EB092004EB0014CAEB0A104E
:100FF00004EB80045C4401214FF0C050FFF730FD4A
:101000000120FFF715FD204600F00EF800F02AF849
:10101000FFF738FE0020B3E70085E2018033E101ED
:10102000C83400088051010000B50246FFF716FEE3
:10103000100C03490880091D0A80FFF719FE00BD46
:101040001828004000B50246FFF708FEC2F303402F
:1010500003490880091D0A80FFF70AFE00BD000051
:101060000828004000BF0348008800F02000002846
:10107000F9D0704704280040074800884FF6F77100
:1010800008400549088000BF0348008800F00800B8
:101090000028F9D0704700000428004021B10288E0
:1010A00042F04002028004E002884FF6BF731A400B
:1010B000028070471AB183880B43838002E08388E3
:1010C0008B43838070470246002013890B400BB18D
:1010D000012000E0002070478181704710B5002298
:1010E000028802F441520B884C8823438C882343A6
:1010F000CC8823430C8923434C8923438C89234385
:10110000CC8923431A430280838B4FF2FF74234020
:1011100083830B8A038210BD00210180418081807E
:10112000C180018141818181C18107210182704794
:10113000704710B500F002F810BD00000CB500209B
:10114000019000903348006840F4803031490860D5
:1011500000BF3048006800F4003000900198401C47
:101160000190009818B90198B0F5A06FF1D1294805
:10117000006800F4003010B10120009001E0002070
:1011800000900098012843D12348006840F01000E7
:10119000214908600846006820F0030008600846FE
:1011A000006840F0020008601A4840681949486029
:1011B0000846406848600846406840F480604860DF
:1011C0000846406820F47C1048600846406840F4B7
:1011D000E81048600846006840F08070086000BF72
:1011E0000C48006800F000700028F9D009484068F9
:1011F00020F00300074948600846406840F00200BC
:10120000486000BF0348406800F00C000828F9D18E
:101210000CBD00000010024000200240042808D14C
:101220004FF0E021096941F004014FF0E022116123
:1012300007E04FF0E021096921F004014FF0E022BE
:10124000116170477047000010B51348006840F006
:1012500001001149086008464068104908400E49DD
:101260004860084600680E4908400B490860084677
:10127000006820F4802008600846406820F4FE00E2
:1012800048604FF41F008860FFF753FF4FF0006085
:101290000449086010BD0000001002400000FFF883
:1012A000FFFFF6FE08ED00E010B540F225511D48A5
:1012B00000F0A5F810B31B4800F05CF9C4B21A485E
:1012C000008800F40040C8B91748008800F4804046
:1012D00060B10A2C03D000201349088020E0124896
:1012E000008840F400401049088019E00D2C06D118
:1012F0000D48008840F480400B49088010E00A48FF
:101300000088C0F30D0009490C5407480088401CB0
:101310000549088008460088C72801DD00200880AC
:1013200010BD00000038014018000020840000209B
:1013300021B1828942F40052828104E082894DF613
:10134000FF731A408281704710B5044620488442DA
:1013500009D101218803FFF7B3FB00214FF480403E
:10136000FFF7AEFB32E01B48844209D1012148045B
:10137000FFF786FB00214FF40030FFF781FB25E0EB
:101380001548844209D101218804FFF779FB002127
:101390004FF48020FFF774FB18E01048844209D115
:1013A0000121C804FFF76CFB00214FF40020FFF778
:1013B00067FB0BE00A48844208D101210805FFF7CA
:1013C0005FFB00214FF48010FFF75AFB10BD0000B7
:1013D000003801400044004000480040004C0040FC
:1013E0000050004002460020B1F5007F00D100BF50
:1013F00013880B400BB1012000E00020704770B54E
:101400000246002400230025002040F66A16B1425F
:1014100000D100BFC1F3421501F01F03012606FAF7
:1014200003F3012D02D19689334006E0022D02D14B
:10143000168A334001E0968A33400C12012606FAE0
:1014400004F41688344013B10CB1012000E00020F0
:1014500070BDF0B50346002400260025002040F6AC
:101460006A17B94200D100BF1846C1F3421401F017
:101470001F06012707FA06F5012C01D10C3004E004
:10148000022C01D1103000E014301AB107682F434C
:10149000076002E00768AF430760F0BD2DE9F04741
:1014A00086B005460E460024A24600BFA14600278E
:1014B000B08900B100BF2F462C8A4CF6FF70044063
:1014C000F08804432C82AC894EF6F3100440B088B7
:1014D00031890843718908430443AC81AC8A4FF6D3
:1014E000FF400440B0890443AC8201A8FFF7FEFA34
:1014F0001F48874202D1DDF810A001E0DDF80CA002
:10150000A88900F4004040B10AEBCA0000EB0A10C1
:1015100031684900B0FBF1F807E00AEBCA0000EBC4
:101520000A1031688900B0FBF1F86420B8FBF0F0D4
:1015300004012009642101FB1089A88900F40040FE
:1015400040B1322000EBC900B0FBF1F000F0070021
:10155000044308E0322000EB09106421B0FBF1F0F5
:1015600000F00F0004432C8106B0BDE8F0870000B6
:101570000038014001468888C0F308007047C1F375
:1015800008028280704700BFFEE700000FB4054BE1
:1015900010B503A9044A029800F0AEF910BC5DF83A
:1015A00014FB0000ED2E0008800000200FB41CB5D5
:1015B0000246002007AC00290BD0491ECDE90021CE
:1015C000054B6A462146069800F096F9009A0021DC
:1015D00011701CBC5DF814FB4F2000080FB4084BC1
:1015E00010B504A902AA039800F086F9044602A9DE
:1015F000002000F037FD204610BC5DF814FB000011
:10160000652000087CB5044600201D4616460029CA
:101610000BD0491ECDE90041044B6A4629463046AD
:1016200000F06AF9009A002111707CBD4F2000087B
:1016300002E008C8121F08C1002AFAD1704770479B
:10164000002001E001C1121F002AFBD170470000F9
:1016500010B504460248006801682046884710BD5E
:101660007800002070B504460D46034800682946FE
:1016700042682046904770BD7800002070B504464F
:101680000D4603480068294682682046904770BD91
:10169000780000202DE9F84F05460E4691469A46FF
:1016A0002D48007808B9BDE8F88FB9F1000F02D0D5
:1016B000BAF1000F00D1F6E7802D01DA802E00DBB1
:1016C000F1E7AC1005EB0900401EC0F3870706EBFD
:1016D0000A00401E00F0FF08202F00DB1F27B8F192
:1016E000800F01DB4FF07F08381B401CC0B2009018
:1016F000AE20FFF7ADFFF820FFF7AAFF2146F42048
:10170000FFF7B0FF3946F620FFF7ACFF3146F52072
:10171000FFF7A8FF4146F720FFF7A4FFF920FFF7E6
:1017200097FF3146204600F07EFCB3460AE00B49A5
:1017300001EB4B1108190099FFF7A0FF0BF1010015
:1017400000F0FF0BC345F2DDF820FFF781FFAF206B
:10175000FFF77EFF00BFA6E77C000020E804002022
:101760002DE9FF5F82B00021DDE90430020DDDF8D4
:1017700040B0034318D044F61050A2F2FF32424367
:101780001514119801281FD0A5EB0B00401C5FEA2F
:10179000000A4FF000064E4FDFF83891B046504631
:1017A00015D5CAF1000413E0119801244AA30128B9
:1017B00001D16FEA0B010298119AC0E90031C0E92A
:1017C000024206B0BDE8F09FCBF10000DFE704461F
:1017D0000021404A491842EB0450CDE9001012E0C4
:1017E000E00707D032463B4640464946FEF750FEEA
:1017F0008046894632463B4610461946FEF748FE6B
:1018000006460F466410002CEAD1DDE90401DDE94B
:101810000023BAF1000F06DAFEF73AFE42464B46C5
:10182000FEF736FE05E0FEF7A5FE42464B46FEF704
:10183000A1FE04460E460022284BFEF723FF03D8E4
:101840004FF0FF30014607E00022254B204631468D
:10185000FEF7D3FCFEF7FDFE102409E0002C0ADBA6
:101860000A220023FEF75EFC039B30321A55641EE9
:1018700050EA0102F2D1641C039AC4F1110314442A
:10188000119A012A03D0012208430DD10AE008432E
:1018900004D000204FF0110B119072E7A3EB0B0561
:1018A0006D1E0DE05B4504DD4FF0000205F1010502
:1018B00004E003DA4FF00002A5F10105002AECD0A4
:1018C00002981199C0E90231C0E9004579E70000AA
:1018D000000014400000F03F300000000000F04322
:1018E0000000E03F024602F0030141EA810040EAC5
:1018F000011040EA811070472DE9FF4F95B09B46DB
:101900008946064600250FE2252877D10024274680
:10191000F84A0121059400E0044316F8013F203BFA
:1019200001FA03F01042F7D130782A2811D06FF075
:101930002F033078A0F13002092A16D8059A44F016
:10194000020402EB820203EB42021044761C059073
:10195000EFE759F8042B0592002A03DA504244F4C9
:101960000054059044F00204761C30782E2816D1DD
:1019700016F8010F44F004042A280DD06FF02F024E
:101980003078A0F13003092B09D807EB870302EB6D
:101990004303C718761CF3E759F8047B761C3078AC
:1019A0006C280FD006DC4C2817D068280DD06A2888
:1019B00014D104E0742810D07A280FD10DE044F43B
:1019C00000140AE044F4801401E044F440147278F6
:1019D000824202D104F58014761C761C3078662889
:1019E0000BD013DC582877D009DC002875D04528A7
:1019F000F6D04628F4D047281AD19DE118E0632894
:101A000035D0642879D0652812D195E1702873D03B
:101A100008DC6728F1D069286FD06E280DD06F28B8
:101A200006D1B5E073282CD0752875D0782874D0ED
:101A30005A46179990476D1C75E1C4F3025002286D
:101A400009D003280DD0D9F8001004280DD00D605E
:101A500009F1040967E1D9F80010EA17C1E9005259
:101A6000F6E7D9F800100D80F2E70D70F0E719F8ED
:101A7000041B8DF8001000208DF80100EA460120BB
:101A800003E059F804AB4FF0FF3061074FF000015D
:101A900002D40DE008F101018846B9420FDA804511
:101AA000F8DB1AF808100029F4D108E008F1010168
:101AB00088468142FADB1AF808100029F6D1059809
:101AC0005B46A0EB080721463846179A00F094FAC7
:101AD000284400EB080507E04DE029E10DE01AF885
:101AE000010B5A4617999047B8F10108F7D25B46A7
:101AF00021463846179A13E142E00A220092C4F3C5
:101B000002524FF0000A022A08D059F804CB032AE7
:101B10004FEAEC710AD00DE029E02AE009F1070153
:101B200021F00702F2E802C1914609E00FFA8CFCAD
:101B30004FEAEC71042A03D14FFA8CFC4FEAEC71A6
:101B4000002907DA0A460021DCF1000C61EB0201F2
:101B50002D2202E0220504D52B228DF8042001223B
:101B600003E0E20701D02022F7E7904659E00A217E
:101B700002E010220DE010214FF0000A00910BE06E
:101B800010224FF0000A44F004040827009203E0FA
:101B900008224FF0000A0092C4F30252022A05D034
:101BA00059F804CB0021032A08D009E009F1070104
:101BB00021F00702F2E802C1914605E01FFA8CFC11
:101BC000042A01D10CF0FF0C4FF00008220728D5A1
:101BD000702806D0009B83F0100353EA0A0305D057
:101BE0000EE040228DF80420012208E05CEA0102A8
:101BF00006D030228DF804208DF805000222904690
:101C0000009B83F0080353EA0A030AD15CEA01024D
:101C100001D1620705D530228DF804204FF001086C
:101C20007F1E582804D034A003900EA802900DE027
:101C300036A0F9E753466046009AFEF773FA8446E9
:101C40000398825C0298401E029002705CEA0100D8
:101C5000F0D1029806A9081A00F1200A600702D5FF
:101C600024F4803400E00127574502DDA7EB0A0089
:101C700000E0002000EB0A01009005984144401A62
:101C80000590E00306D45B462146179A059800F0BC
:101C9000B3F90544002706E001A85A46C05D17992C
:101CA00090476D1C7F1C4745F6DBE0030CD55B4677
:101CB0002146179A059800F09FF9054404E030206A
:101CC0005A46179990476D1C0099481E00900029AC
:101CD000F5DC08E0029802995A460078491C029106
:101CE000179990476D1CBAF10001AAF1010AF1DCC5
:101CF00065E10000092801003031323334353637D0
:101D00003839616263646566000000003031323347
:101D100034353637383941424344454600000000E7
:101D200000F058F90544761C307800287FF4ECADBB
:101D300019B02846BDE8F08F620700D4062709F1E4
:101D4000070222F0070CFCE80223E14603F00048FA
:101D50005FEA080C02D00FF2702C0DE05FEA045C21
:101D600002D50FF2682C07E05FEAC47C02D00FF2C4
:101D7000602C01E0AFF2700C4FF0FF3823F000430D
:101D8000CDF850C065280CD006DC452809D046287F
:101D90001DD047283DD13DE0662818D067287ED168
:101DA00038E00021112F01DB112000E0781CCDE983
:101DB000000106A90EA8FFF7D3FCDDE90F010E9A7A
:101DC00003910021009207F1010A04914DE04FF0C8
:101DD00000400097CDE9011006A90EA8FFF7C0FC4E
:101DE000DDE90F0203920E9B11990022DDF80CA091
:101DF0000093049211B9791C00EB010AB7EB0A00B9
:101E000004D4C0F1FF3007F1010A0490AAEB0700E7
:101E1000019044E0012F00DA01270021112F01DD9C
:101E2000112000E03846CDE9000106A90EA8FFF711
:101E300097FCDDE90F010E9A0391002104910092B5
:101E4000BA4621070CD40399514500DA8A46BAF103
:101E5000010F05DD009AAAF10101515C302908D07B
:101E6000B84202DA10F1040F06DA0121CDE90110BF
:101E700015E0AAF10101E9E7002805DC0499014415
:101E80000491AAEB000102E0411C514500DD8A46A5
:101E90000499401A401C01904FF000400290200726
:101EA00004D40198504501DBCDF8048000208DF862
:101EB0004F0002980DF14F07B0F1004F25D02B20B5
:101EC0000E9002984FF0020800280CDA404202906F
:101ED0002D200E9007E00A210298FEF735FA3031E6
:101EE000029007F8011DB8F10001A8F10108F2DC29
:101EF00002980028EFD1791E0E980870307800F013
:101F0000200040F0450007F8020D12A8C01B00F1A8
:101F100007081498007800B1012000EB0A0101982D
:101F200001EBE07105984144401A401E0590E00322
:101F300006D45B462146179A059800F05DF80544E3
:101F40001498007818B15A46179990476D1CE00311
:101F500024D55B462146179A059800F04DF80544B4
:101F60001CE00498002807DBDDE90301884203DD5B
:101F70000098405C179901E0179930205A46904725
:101F8000049805F10105401C04900198401E019041
:101F900004D12E205A46179990476D1CBAF10001C2
:101FA000AAF1010ADDDC05E017F8010B5A46179982
:101FB00090476D1CB8F10001A8F10108F4DC5B4604
:101FC0002146179A0598ABE62D0000002B00000073
:101FD000200000002DE9F041044600251E4617466A
:101FE000880404D405E039462020B0476D1C641EE7
:101FF000F9D52846BDE8F0812DE9F04104460025D9
:102000001E469046C80301D5302700E020278804EB
:1020100004D505E041463846B0476D1C641EF9D52D
:102020002846BDE8F08170B505460C4605F01F0056
:10203000FFF70EFB04F00F0141F06000FFF708FB13
:10204000C4F3021141F07000FFF702FB70BD4A6853
:10205000002A06D00A68531C0B6010704868401EA6
:10206000486070470A68531C0B601070704700008E
:1020700010B56FF00400FFF7D1F80A4800680A496C
:10208000B0FBF1F0094908700846007800EB400108
:10209000C1EBC0104FF6FF7101EAC000044908808F
:1020A00010BD00001C00002000127A001400002067
:1020B000160000200146114A12884A434FF0E023DF
:1020C0005A6100229A611A46126942F001021A61AD
:1020D00000BF4FF0E022106900F001021AB100F4D5
:1020E0008032002AF5D04FF0E022126922F001027E
:1020F0004FF0E0231A6100229A6170471600002019
:1021000010B504210648FEF708FC142000F080FFFB
:1021100004210348FEF703FC782000F079FF10BD8E
:102120000008014010B500210648FEF721FB0022FF
:1021300002210548FEF7BEFF00210348FEF7AEFF6F
:1021400010BD0000300002400030014008B500F032
:10215000C9FF01210846FEF773FC0D208DF8000031
:1021600001208DF8010000208DF8020001208DF87B
:1021700003006846FEF71AFCFFF7C2FF08BD000027
:1021800070B504460D4610210D48FEF7C6FB082128
:102190000B48FEF7C4FB2946204600F053F86420A4
:1021A00000F08AF848B900210648FEF7E1FA10214C
:1021B0000348FEF7B4FB002070BD0120FCE70000DF
:1021C00000080140300002402DE9F04180460C46F5
:1021D0000025002704E0184800F80780781C87B223
:1021E000FF2FF8DD10211548FEF797FB0821134853
:1021F000FEF795FB1BE0601B86B2B6F5807F01DD24
:102200004FF4807631460C4800F01CF8642000F052
:1022100053F850B900210A48FEF7AAFA10210748DE
:10222000FEF77DFB0020BDE8F081A81985B2A5422C
:10223000E1DB0120F7E70000E8030020000801408F
:102240003000024030B58BB005460C4600201749DF
:10225000087000211648FEF78BFA16480090019589
:10226000102002900394002004908020059000200C
:102270000690079008904FF40050099000200A90B3
:1022800069460B48FEF79FFA0122022109480C38E3
:10229000FEF710FF012202210548FEF78BFA01210B
:1022A0000348FEF765FA0BB030BD00007400002053
:1022B000300002400C30014001464FF47A7001FBBF
:1022C00000F200BF0448007818B9101EA2F1010204
:1022D000F8D1014800787047740000200748006872
:1022E00040F08070054908600020054948600846B4
:1022F000006840F00100086070470000FCED00E05D
:10230000001000E000B50948006800F0807008B9CE
:10231000FFF7E4FF002006494860064908600448CA
:10232000006840F001000249086000BDFCED00E0DB
:10233000001000E0680000200E4840680E49086068
:10234000084600680D490968884207D30A480068B2
:102350000A490968401A0A49086009E00748006804
:10236000C0F1FF30044909680844401C0449086072
:1023700070470000001000E06C00002068000020A2
:102380007000002070B586B00646002E1BD128488C
:10239000006888B94FF4EF70264927A22BA3CDE936
:1023A0000310CDE9013200900B4631A236A1002086
:1023B00000F098F800BFFEE74FF4EF721D491EA031
:1023C0001B4B1B68984700240525314890F888006E
:1023D00010B9284606B070BD00F086FA002420E04F
:1023E00004EB440000EB0411294823300844807CAE
:1023F000012814D104EB440000EB041224482330DC
:102400001044411C10223046FDF7E8FE38B904EBB9
:10241000440000EB04111E482330455C03E0601CBF
:10242000C4B2042CDCDB00BF00F092FA2846D1E7EE
:10243000640000206635000874616720213D202873
:1024400028766F6964202A293029000028257329FD
:102450002068617320617373657274206661696CB2
:1024600065642061742025733A256C642E00000099
:102470002E2E5C534F4654574152455C656C6F6736
:102480005C656C6F672E6300656C6F670000000011
:102490005801002010B50024114890F88800012848
:1024A00001D1204610BD00F0A1FA04460CB120462F
:1024B000F8E7012000F02CFA0020094981F88B0090
:1024C00081F88C00012000F0E9FB052000F0A2FA61
:1024D00000F0FCFA0120024981F888002046E1E77B
:1024E000580100200FB42DE9F04F8BB005460F4680
:1024F0009846DDF860903846FDF769FE8246002474
:102500004FF0020B002009900A9006900790089067
:10251000052D1CDDCB480068002811D14FF40F7049
:10252000C949CAA2D0A3CDE90310CDE90132009078
:102530000B46D6A2DBA10020FFF7D4FF00BFFEE7C9
:102540004FF40F72C049C1A0BE4B1B689847D748D3
:1025500090F8890020B90BB0BDE8F00F5DF814FBCE
:10256000D2480078A84204DB3846FFF70BFFA842A8
:1025700000DAF0E7CD49491C3846FDF716FE00B9F0
:10258000E9E71AA8059000F0AFF9C84890F88D0067
:1025900078B1C7480119C7A2204600F027FC0444BF
:1025A000C54850F82520C2480119204600F01EFCFD
:1025B00004440121284600F0ABFC40B1BF4850F86C
:1025C0002520BB480119204600F010FC04440221DC
:1025D000284600F09DFCE8B1B54801193A4620466E
:1025E00000F004FC0444BAF1080F0CD8CAF1080149
:1025F000202206A8FDF7C7FDAD48011906AA20460E
:1026000000F0F4FB0444AA480119ADA2204600F0F2
:10261000EDFB04441C21284600F07AFC002852D02F
:10262000A3480119A7A2204600F0E0FB04440421BE
:10263000284600F06DFCA8B100F0A6F904909C4873
:1026400001192046049A00F0D1FB044418212846C1
:1026500000F05EFC30B19648011999A2204600F0C6
:10266000C5FB04440821284600F052FCA8B100F044
:1026700083F904908E4801192046049A00F0B6FBB5
:1026800004441021284600F043FC30B18848011969
:102690008BA2204600F0AAFB04441021284600F03B
:1026A00037FC48B100F06CF90490814801192046CC
:1026B000049A00F09BFB04447D48011982A2204645
:1026C00000F094FB044420212846169A00F084FC74
:1026D00060B942464021284600F07EFC30B94A46A7
:1026E0008021284600F086FC002862D0704801193D
:1026F00076A2204600F07AFB044420212846169A50
:1027000000F06AFC08B36A4801192046169A00F0E6
:102710006DFB044442464021284600F05DFC38B180
:10272000634801196AA2204600F060FB04440CE0F3
:102730004A468021284600F05DFC30B15C48011912
:102740005FA2204600F052FB04444A4680212846FE
:1027500000F050FCC8B14B465EA2052109A8FEF767
:1027600025FF5348011909AA204600F03FFB044405
:1027700042464021284600F02FFC30B14C48011958
:102780004FA2204600F032FB044442464021284636
:1027900000F022FC30B1464801194246204600F0C4
:1027A00025FB0444424801194BA2204600F01EFBC1
:1027B0000444C4F500713E4A1019059B199AFEF7AE
:1027C00021FF064600200590A019B0F5007F03D830
:1027D000002E01DB344401E04FF40074201D584406
:1027E000B0F5007F04D94FF40074241FA4EB0B0450
:1027F0002E48807C58B100202D4908552B491231B4
:102800002B48FDF7D2FC10B900F0A2F8A3E6274848
:1028100090F88D0030B12648011930A2204600F012
:10282000E5FA0444224801192EA2204600F0DEFAFF
:10283000044421461E4800F0DBF800F089F800BF90
:1028400089E60000640000207E3500086C6576652E
:102850006C203C3D20454C4F475F4C564C5F5645E5
:1028600052424F53450000002825732920686173A8
:1028700020617373657274206661696C65642061A0
:10288000742025733A256C642E0000002E2E5C53B4
:102890004F4654574152455C656C6F675C656C6F81
:1028A000672E6300656C6F67000000005801002010
:1028B000E80100201B5B00004C00002034000020D9
:1028C000200000005B0000005D20000028000000E8
:1028D0003A000000256C6400290000001B5B306D8D
:1028E000000000000D0A000010B5084890F88A00AA
:1028F00030B100F08BF80120044981F88C0003E02E
:102900000120024981F88B0010BD00005801002011
:1029100010B504460D4880F88A4090F88A00A0B1AE
:102920000A4890F88C0030B9084890F88B0010B134
:1029300000F06CF809E0054890F88C0028B10348D5
:1029400090F88B0008B900F063F810BD5801002022
:1029500010B5084890F88A0030B100F059F800200E
:10296000044981F88C0003E00020024981F88B00C3
:1029700010BD00005801002000A0704700000000BA
:1029800000A070470000000010B58CB004AC2021FE
:1029900004A8FDF7FFFBFEF775F90B4880780A499C
:1029A0004978094A1278084BDB79CDE90032CDE944
:1029B000021005488379828804A104A8FEF70EFE60
:1029C00020460CB010BD00004C0100202534642DC1
:1029D000253032642D2530326420253032643A258A
:1029E0003032643A25303264000000000020704725
:1029F00070B504460D462246294602A0FEF7C6FDE4
:102A000070BD0000252E2A730000000072B67047CA
:102A100062B6704710B586B00446052C1CDD104820
:102A20000068002811D14FF4AC700E490EA215A316
:102A3000CDE90310CDE9013200900B461AA220A186
:102A40000020FFF74FFD00BFFEE74FF4AC720549D1
:102A500005A0034B1B6898471B48047006B010BDC7
:102A6000640000203A3500086C6576656C203C3DBA
:102A700020454C4F475F4C564C5F564552424F5392
:102A80004500000028257329206861732061737355
:102A9000657274206661696C6564206174202573B9
:102AA0003A256C642E0000002E2E5C534F4654577E
:102AB0004152455C656C6F675C656C6F672E6300A7
:102AC000656C6F67000000005801002010B50024FD
:102AD00000BF19E004EB440101EB04120C4911445E
:102AE000481C1121FDF756FB002104EB440000EBCC
:102AF00004120748815404EB440000EB041204481C
:102B000010448174601CC4B2042CE3DB10BD0000CF
:102B10007B01002030B585B004460D46052C1CDD38
:102B200010480068002811D14FF49F700E490FA281
:102B300015A3CDE90310CDE9013200900B461BA28D
:102B400020A10020FFF7CEFC00BFFEE74FF49F72EC
:102B5000054906A0034B1B6898471C4840F82450C1
:102B600005B030BD640000201D3500086C65766539
:102B70006C203C3D20454C4F475F4C564C5F5645C2
:102B800052424F5345000000282573292068617385
:102B900020617373657274206661696C656420617D
:102BA000742025733A256C642E0000002E2E5C5391
:102BB0004F4654574152455C656C6F675C656C6F5E
:102BC000672E6300656C6F6700000000C80100207D
:102BD00010B586B00446002C1ED0012C1CD0114824
:102BE0000068002811D140F213100F490FA219A359
:102BF000CDE90310CDE9013200900B461EA224A1BD
:102C00000020FFF76FFC00BFFEE740F213120649F9
:102C100006A0044B1B6898471F4880F8894006B0FF
:102C200010BD000064000020E934000828656E61D2
:102C3000626C6564203D3D2066616C736529207C73
:102C40007C2028656E61626C6564203D3D20747255
:102C500075652900282573292068617320617373C5
:102C6000657274206661696C6564206174202573E7
:102C70003A256C642E0000002E2E5C534F465457AC
:102C80004152455C656C6F675C656C6F672E6300D5
:102C9000656C6F67000000005801002010B586B019
:102CA0000446002C1ED0012C1CD0114800680028BE
:102CB00011D140F21F100F490FA219A3CDE9031043
:102CC000CDE9013200900B461EA224A10020FFF79F
:102CD00009FC00BFFEE740F21F12064906A0044BA4
:102CE0001B6898471F4880F88D4006B010BD000053
:102CF000640000200135000828656E61626C65641F
:102D0000203D3D2066616C736529207C7C20286510
:102D10006E61626C6564203D3D20747275652900AA
:102D2000282573292068617320617373657274208C
:102D30006661696C65642061742025733A256C6452
:102D40002E0000002E2E5C534F4654574152455CD6
:102D5000656C6F675C656C6F672E6300656C6F6791
:102D600000000000580100200EB50B4890F88800C4
:102D700000B90EBD0120FFF72BFF08A009A1F42226
:102D8000124BCDE90021029011A217A10320FFF7F9
:102D9000A9FB00BFEDE7000058010020322E322EC3
:102DA00039390000456173794C6F67676572205649
:102DB000257320697320696E697469616C697A652D
:102DC00020737563636573732E000000D4340008AC
:102DD0002E2E5C534F4654574152455C656C6F67CD
:102DE0005C656C6F672E6300542E5400F0B585B09F
:102DF00006460D4614462746002D19D12448006882
:102E000080B92C20234924A224A3CDE90310CDE9C5
:102E1000013200900B462AA231A10020FFF762FB8D
:102E200000BFFEE72C221B491BA0194B1B689847CB
:102E3000002C19D11648006880B92D2015492AA206
:102E400016A3CDE90310CDE9013200900B461CA278
:102E500023A10020FFF746FB00BFFEE72D220D490E
:102E600021A00B4B1B6898470AE03046761CB0F552
:102E7000007F04D214F8010B05F8010B00E002E01A
:102E800020780028F1D100BFE01B05B0F0BD0000A4
:102E900064000020B6350008647374002825732987
:102EA0002068617320617373657274206661696C58
:102EB00065642061742025733A256C642E0000003F
:102EC0002E2E5C534F4654574152455C656C6F67DC
:102ED0005C656C6F675F7574696C732E63000000CE
:102EE000656C6F67000000007372630070B5044684
:102EF0000D46E1B20548FEF742FB00BF4021034802
:102F0000FEF770FA0028F9D0204670BD0038014065
:102F100030B585B004460D46052C1CDD134800680D
:102F2000002811D140F2DD20114912A218A3CDE9E9
:102F30000310CDE9013200900B461EA223A1002010
:102F4000FFF7D0FA00BFFEE740F2DD22084909A0F2
:102F5000064B1B6898471F4850F82400284010B1C2
:102F6000012005B030BD0020FBE700006400002018
:102F70008A3500086C6576656C203C3D20454C4FD9
:102F8000475F4C564C5F564552424F534500000038
:102F9000282573292068617320617373657274201A
:102FA0006661696C65642061742025733A256C64E0
:102FB0002E0000002E2E5C534F4654574152455C64
:102FC000656C6F675C656C6F672E6300656C6F671F
:102FD00000000000C801002070B505460E461446EA
:102FE00034B131462846FFF793FF08B1012070BD88
:102FF0000020FCE770B505460E46144634B1314654
:103000002846FFF785FF08B1012070BD0020FCE7CE
:10301000014605E0002000E0401CB0F5E15FFBD375
:103020000A1EA1F10101F5D1704700001CB54FF453
:10303000A060FDF7F3FCFDF799FCFFF719F84FF4DA
:10304000E13000F0F7F8FDF719FFFFF723FA05214B
:103050000020FFF75FFD05210120FFF75BFD052143
:103060000220FFF757FD05210320FFF753FDE5215F
:103070000420FFF74FFD05210846FFF74BFDFFF742
:1030800073FE002000900F230A220921019040F2D4
:10309000E970FDF763FF104800F0B6F9002000F07A
:1030A0001DF9602069230D4A002100900B2000F0DB
:1030B0003BF90FE0FFF726F90948006808B901203D
:1030C00000E000200649086040F2DC50FEF7F2FF05
:1030D000FFF732F9EEE70000DC350008F64400089F
:1030E000B401224200B587B0012141F20500FDF78D
:1030F000D7FCA020ADF8180018208DF81B00032085
:103100008DF81A0006A92348FDF77CFB1E20ADF8B8
:10311000180010208DF81B0003208DF81A0006A956
:103120001C48FDF76FFB10211A48FDF7F8FB08213A
:103130001848FDF7F2FB02211648FDF7F0FB01A845
:10314000FDF7EAFF4FF44040ADF804004FF4827001
:10315000ADF806000020ADF808000220ADF80A0026
:103160000120ADF80C004002ADF80E000820ADF8CB
:1031700010000020ADF812000720ADF8140001A9DE
:103180000548FDF7ABFF01210348FDF787FF07B0B6
:1031900000BD0000000801400030014010B50446A9
:1031A00000BF02210448FDF78EFF0028F9D0214618
:1031B0000148FDF791FF10BD0030014010B500BF80
:1031C00080210348FDF77FFF0128F9D010BD0000E2
:1031D0000030014010B5044610210848FDF79DFB62
:1031E00008210648FDF799FB2046FFF7D7FFFFF7B8
:1031F000E5FF10210148FDF792FB10BD00080140DA
:1032000070B505460C4610210948FDF786FB0821DC
:103210000748FDF782FB2846FFF7C0FF2046FFF76F
:10322000BDFFFFF7CBFF10210148FDF778FB70BD14
:103230000008014010B586B00446012144F20400A4
:10324000FDF72EFC2348FEF77FF84FF40070ADF831
:10325000140003208DF8160018208DF8170005A91A
:103260001D48FDF7CFFA4FF48060ADF8140004203C
:103270008DF8170005A91848FDF7C4FA25208DF828
:10328000000003208DF801008DF8020001208DF868
:1032900003006846FDF78AFB01940020ADF80800A2
:1032A000ADF80A00ADF80C00ADF810000C20ADF838
:1032B0000E0001A90748FEF7F1F8012240F225515E
:1032C0000448FEF7C6F801210248FEF731F806B0BF
:1032D00010BD0000003801400008014070B50446F0
:1032E0002046FEF7FFFA05462A464FF480510C4867
:1032F000FCF749FF0B48007800B970BDAE20FEF71F
:10330000A7F900210846FEF78EFE4FF480510448CD
:10331000FEF7B4F9AF20FEF79BF900BFEDE7000020
:10332000E80400207C0000202DE9FE4F05460C46F5
:1033300091461E46802D01DA802C01DBBDE8FE8F10
:103340003746DDF830803E46A819802802DDC5F1F9
:103350008000C7B204EB0800802803DDC4F18000C0
:1033600000F0FF08F01C80100290002040E002995D
:1033700000FB01910191002136E0DDF804A00AEB89
:10338000A10A9AF800A04FEA817B4FEA5B7B4AFAD8
:103390000BFA0AF0030ACDF800A005EB010A0AF0C7
:1033A000FF0293104FEA827A4FEA5A7C04EB000A3C
:1033B000DFF850B00BEB4A1A1AF803A04FF0030BDA
:1033C0000BFA0CFB2AEA0B0ADDF800B00BFA0CFB37
:1033D0004AEA0B0A04EB000BDFF828E00EEB4B1B6C
:1033E0000BF803A04A1CD1B2B942C6DB411CC8B2DB
:1033F0004045BCDB43463A4621462846FEF74AF99B
:1034000000BF9BE7E804002010B504462048046094
:103410000146096808698047E220FEF719F9322061
:10342000FEF748FE00213120FEF71CF92720FEF7A9
:103430000FF9D220FEF70CF9D720FEF709F9EB209F
:10344000FEF706F950218120FEF70CF9C420FEF7A3
:10345000FFF84020FEF7FCF85620FEF7F9F87F2130
:10346000F120FEF7FFF80021F220FEF7FBF87F21A4
:10347000F320FEF7F7F80320FFF730FF00F00AF81B
:10348000AF20FEF7E5F80A20FEF714FE10BD00009D
:103490007800002010B5AE20FEF7DAF800210846CB
:1034A000FEF7C1FD4FF480510348FEF7E7F8AF2067
:1034B000FEF7CEF810BD0000E8040020000303066C
:1034C00001040602050003051F1C1F1E1F1E1F1FEF
:1034D0001E1F1E1F656C6F675F73746172740065D9
:1034E0006C6F675F73746F7000656C6F675F736597
:1034F000745F6F75747075745F656E61626C65641E
:1035000000656C6F675F7365745F746578745F6383
:103510006F6C6F725F656E61626C656400656C6F85
:10352000675F7365745F666D7400656C6F675F736A
:1035300065745F66696C74657200656C6F675F7354
:1035400065745F66696C7465725F6C766C00656C3F
:103550006F675F7365745F66696C7465725F7461D1
:10356000675F6C766C00656C6F675F6765745F663C
:10357000696C7465725F7461675F6C766C00656C12
:103580006F675F6F7574707574006765745F666DE3
:10359000745F656E61626C656400656C6F675F6621
:1035A000696E645F6C766C00656C6F675F66696EF0
:1035B000645F74616700656C6F675F7374726370DA
:1035C0007900656C6F675F6370796C6E00656C6F16
:1035D000675F6D656D63707900000000D53100088C
:1035E0000132000881210008C92100084D2100088E
:1035F0002521000803000000000000000000005F1B
:1036000000000007000700147F147F14242A7F2A7B
:103610001223130864623649552250000503000046
:10362000001C2241000041221C0014083E0814081E
:10363000083E08080050300000080808080800602C
:1036400060000020100804023E5149453E00427FC0
:10365000400042615149462141454B311814127FC7
:103660001027454545393C4A494930017109050350
:103670003649494936064949291E003636000000B8
:10368000563600000814224100141414141400418A
:103690002214080201510906324979413E7E111176
:1036A000117E7F494949363E414141227F414122B5
:1036B0001C7F494949417F090909013E4149497A2D
:1036C0007F0808087F00417F41002040413F017F83
:1036D000081422417F404040407F020C027F7F045B
:1036E00008107F3E4141413E7F090909063E415194
:1036F000215E7F09192946464949493101017F0167
:10370000013F4040403F1F2040201F3F4038403F86
:1037100063140814630708700807615149454300A2
:103720007F41410002040810200041417F00040253
:103730000102044040404040000102040020545473
:1037400054787F48444438384444442038444448FA
:103750007F3854545418087E0901020C5252523ECC
:103760007F0804047800447D40002040443D007FF1
:103770001028440000417F40007C041804787C0835
:1037800004047838444444387C141414080814148D
:10379000187C7C080404084854545420043F4440D6
:1037A000203C4040207C1C2040201C3C4030403CC1
:1037B00044281028440C5050503C4464544C44005D
:1037C0000836410000007F00000041360800100864
:1037D00008100800000000000000005F000000006A
:1037E0000700070000147F147F1400242A7F2A1288
:1037F0000023130864620036495522500000050377
:10380000000000001C224100000041221C000014A6
:10381000083E08140008083E080800005030000068
:103820000008080808080000606000000020100878
:103830000402003E5149453E0000427F40000042E4
:1038400061514946002141454B31001814127F1047
:10385000002745454539003C4A4949300001710976
:10386000050300364949493600064949291E00002A
:1038700036360000000056360000000814224100D1
:103880000014141414140000412214080002015101
:10389000090600324979413E007E1111117E007FF8
:1038A00049494936003E41414122007F4141221CA5
:1038B000007F49494941007F09090901003E41490A
:1038C000497A007F0808087F0000417F41000020FE
:1038D00040413F01007F08142241007F40404040AA
:1038E000007F020C027F007F0408107F003E4141F0
:1038F000413E007F09090906003E4151215E007FDB
:10390000091929460046494949310001017F010151
:10391000003F4040403F001F2040201F003F4038F4
:10392000403F006314081463000708700807006133
:103930005149454300007F41410000020408102026
:10394000000041417F0000040201020400404040A9
:103950004040000001020400002054545478007FCD
:103960004844443800384444442000384444487FA4
:1039700000385454541800087E090102000C5252B9
:10398000523E007F080404780000447D400000207F
:1039900040443D00007F102844000000417F40006B
:1039A000007C04180478007C08040478003844443F
:1039B0004438007C1414140800081414187C007C8B
:1039C0000804040800485454542000043F44402094
:1039D000003C4040207C001C2040201C003C40302B
:1039E000403C004428102844000C5050503C0044F7
:1039F00064544C440000083641000000007F000081
:103A000000004136080000100808100800000000FF
:103A100000000000000000005F0000000000000740
:103A2000000700000000147F147F14000000242A07
:103A30007F2A120000002313086462000000364948
:103A40005522500000000005030000000000001C8B
:103A50002241000000000041221C00000000140868
:103A60003E081400000008083E080800000000504E
:103A7000300000000000080808080800000000608E
:103A800060000000000020100804020000003E5109
:103A900049453E00000000427F40000000004261B6
:103AA0005149460000002141454B310000001814E7
:103AB000127F1000000027454545390000003C4AB0
:103AC0004949300000000171090503000000364932
:103AD000494936000000064949291E000000003609
:103AE00036000000000000563600000000000814F8
:103AF00022410000000014141414140000000041BE
:103B00002214080000000201510906000000324999
:103B100079413E0000007E1111117E0000007F49B6
:103B20004949360000003E414141220000007F41EA
:103B300041221C0000007F494949410000007F09E3
:103B40000909010000003E4149497A0000007F0850
:103B500008087F00000000417F4100000000204075
:103B6000413F010000007F081422410000007F4017
:103B70004040400000007F020C027F0000007F04F4
:103B800008107F0000003E4141413E0000007F09D7
:103B90000909060000003E4151215E0000007F0936
:103BA0001929460000004649494931000000010139
:103BB0007F01010000003F4040403F0000001F2007
:103BC00040201F0000003F4038403F0000006314C9
:103BD0000814630000000708700807000000615126
:103BE000494543000000007F4141000000000204FD
:103BF0000810200000000041417F00000000040286
:103C0000010204000000404040404000000000016C
:103C100002040000000020545454780000007F4843
:103C20004444380000003844444420000000384434
:103C300044487F0000003854545418000000087EA7
:103C40000901020000000C5252523E0000007F08A1
:103C500004047800000000447D4000000000204083
:103C6000443D000000007F10284400000000004197
:103C70007F40000000007C041804780000007C08ED
:103C800004047800000038444444380000007C14E8
:103C9000141408000000081414187C0000007C08AC
:103CA0000404080000004854545420000000043F5D
:103CB0004440200000003C4040207C0000001C20CC
:103CC00040201C0000003C4030403C0000004428E4
:103CD0001028440000000C5050503C000000446488
:103CE000544C440000000008364100000000000071
:103CF0007F000000000000413608000000001008AE
:103D00000810080000000000000000000000000093
:103D10000000000000000000FF00000000000000A4
:103D2000330000000000003F003F000000000000E2
:103D300000000000000030FF30FF30000000033FB3
:103D4000033F0300000030CCFFCC0C0000000C0C43
:103D50003F0C030000000F0FC0300C0000000C03EC
:103D6000003C3C0000003CC3330C000000000F305E
:103D7000330C3300000000330F000000000000008F
:103D800000000000000000F00C0300000000000331
:103D90000C300000000000030CF0000000000030B8
:103DA0000C030000000030C0FCC030000000030025
:103DB0000F0003000000C0C0FCC0C00000000000F5
:103DC0000F000000000000000000000000000033B1
:103DD0000F0000000000C0C0C0C0C0000000000014
:103DE0000000000000000000000000000000003C97
:103DF0003C00000000000000C0300C0000000C037C
:103E0000000000000000FC03C333FC0000000F337F
:103E100030300F000000000CFF00000000000030F8
:103E20003F30000000000C0303C33C000000303CA6
:103E3000333030000000030333CF030000000C30A8
:103E400030300F000000C0300CFF00000000030302
:103E5000033F030000003F333333C30000000C3046
:103E600030300F000000F0CCC3C3000000000F3062
:103E700030300F0000000303C3330F000000003F89
:103E80000000000000003CC3C3C33C0000000F3032
:103E900030300F0000003CC3C3C3FC000000003002
:103EA000300C03000000003C3C0000000000000F4C
:103EB0000F0000000000003C3C0000000000003348
:103EC0000F0000000000C0300C03000000000003E1
:103ED0000C300000000030303030300000000303B0
:103EE00003030300000000030C30C000000000309A
:103EF0000C03000000000C0303C33C0000000000A2
:103F00003300000000000CC3C303FC0000000F30AE
:103F10003F300F000000FC030303FC0000003F03E0
:103F200003033F000000FFC3C3C33C0000003F3059
:103F300030300F000000FC0303030C0000000F30C2
:103F400030300C000000FF03030CF00000003F3095
:103F5000300C03000000FFC3C3C3030000003F3068
:103F6000303030000000FFC3C3C3030000003F0037
:103F7000000000000000FC03C3C3CC0000000F30B1
:103F800030303F000000FFC0C0C0FF0000003F0015
:103F900000003F0000000003FF03000000000030AD
:103FA0003F3000000000000003FF030000000C3061
:103FB000300F00000000FFC0300C030000003F0085
:103FC000030C30000000FF000000000000003F3044
:103FD000303030000000FF0CF00CFF0000003F000C
:103FE00000003F000000FF30C000FF0000003F0065
:103FF00000033F000000FC030303FC0000000F303F
:1040000030300F000000FFC3C3C33C0000003F007E
:10401000000000000000FC030303FC0000000F3060
:10402000330C33000000FFC3C3C33C0000003F005B
:10403000030C300000003CC3C3C303000000303059
:1040400030300F0000000303FF03030000000000F6
:104050003F0000000000FF000000FF0000000F30E4
:1040600030300F000000FF000000FF000000030CD4
:10407000300C03000000FF00C000FF0000000F3004
:104080000F300F0000000F30C0300F0000003C0365
:1040900000033C0000003FC000C03F0000000000E3
:1040A0003F00000000000303C3330F0000003C3357
:1040B00030303000000000FF030300000000003F2C
:1040C0003030000000000C30C00000000000000094
:1040D00000030C000000000303FF0000000000309C
:1040E000303F00000000300C030C300000000000E6
:1040F0000000000000000000000000000000303060
:1041000030303000000000030C30000000000000E0
:1041100000000000000000303030C00000000C3310
:1041200033333F000000FFC03030C00000003F309C
:1041300030300F000000C0303030000000000F3081
:1041400030300C000000C03030C0FF0000000F30E5
:1041500030303F000000C0303030C00000000F336E
:10416000333303000000C0FCC3030C000000003F19
:10417000000000000000F00C0C0CFC0000000033FC
:1041800033330F000000FFC03030C00000003F009C
:1041900000003F0000000030F3000000000000308D
:1041A0003F3000000000000030F3000000000C3041
:1041B000300F00000000FF00C030000000003F038F
:1041C0000C30000000000003FF0000000000003081
:1041D0003F3000000000F030C030C00000003F0061
:1041E00003003F000000F0C03030C00000003F007E
:1041F00000003F000000C0303030C00000000F3031
:1042000030300F000000F0303030C00000003F03BD
:10421000030300000000C03030C0F00000000003C5
:1042200003033F000000F0C03030C00000003F003A
:10423000000000000000C0303030000000003033CB
:1042400033330C00000030FF300000000000000F8E
:1042500030300C000000F0000000F00000000F30D3
:10426000300C3F000000F0000000F0000000030CE4
:10427000300C03000000F0000000F00000000F30E0
:104280000F300F00000030C000C030000000300CC4
:10429000030C30000000F0000000F00000000033CC
:1042A00033330F000000303030F030000000303C7D
:1042B00033303000000000C03C030000000000006C
:1042C0000F30000000000000FF00000000000000B0
:1042D0003F000000000000033CC000000000003070
:1042E0000F000000000000C0C000C000000003007C
:1042F0000003000000000000F83500080507205FFB
:10430000D33700080608205F0D3A00080808205F30
:10431000053D00080810205FE3C400018000600034
:10432000F8FF07004010200C18030F400880C87FDA
:1043300008000801280618180000C3BA104010220F
:10434000F0151F081016F061000080008240828086
:10435000E27F92008A00860080000000E2D54000E3
:1043600040404220CC1F0020085028484844894241
:104370000E41C84238440858084000400000C7CAEF
:104380000081004100217F1D49214941498149FFA8
:104390004989498949897F89008900810081000014
:1043A000BBD2800080008000800080008000800000
:1043B00080008000800080008000800080008000FD
:1043C0000000F6B8800080004000200010000800C7
:1043D0000400C3FF0400080010002000400080001B
:1043E00080000000BAD210046004027E8C0100003C
:1043F0008400E4FF1C820541C626BC1824292446FB
:10440000E48104800000A7BE000000FF00490049CD
:104410007F49494949FF490049FF49497F490049C6
:10442000004900FF00000000C1C600400030FE0F40
:1044300012049284B264D21F920492049204D2FFB6
:10444000B2049E04000400000000BBC4001202126B
:10445000020AFA7EAA0AAF0BAA0AAAFEAA0AAF2A81
:10446000AA4AFA3E020A021200120000D4CF00400B
:1044700000420044FE589240927F92409240924007
:10448000927F9240FE500048004600400000BECAA5
:104490004020401042084206420042404280C27F13
:1044A0004200420042004202420440084030000004
:1044B000C2CE10046004027E8C010040007EFE42E9
:1044C0009242927E9242927E9242FE42007E004052
:1044D0000000C8B600400030FC8F24802484244CA7
:1044E000FC55252526252425FC55244C2480248094
:1044F000048000000E00000000000000000000002A
:104500000055A5AA550500000000000000000000AD
:10451000000000000000000000004095AAAAAAAA1E
:104520006A1500000000000000000000000000000C
:10453000000000000095AA55555555A56A050000D4
:1045400000000000000000000000000000000090DB
:104550006AA95A555595AA955A0000000000000016
:1045600000000000000000000000A9556AA9555590
:1045700069955AA506000000000000000000000038
:1045800000000000945AA501905695060069556AEE
:10459000010000000000000000000000000040A931
:1045A0005529000059A501009056A51600000000ED
:1045B000000000000000000000905A550A0000644E
:1045C0006500004056556A00000000000000000031
:1045D00000000000A45595020000A0190000005939
:1045E00055A5010000000000000000000000405A36
:1045F000559501000090190000006855551A0000FB
:10460000000000000000000000905655650000000A
:10461000800600000064555569000000000000009D
:1046200000000000655555650000004006000000D0
:10463000905555A505000000000000000000405AFC
:104640005555290000904106540000905555551AC3
:1046500000000000000000000080565555190000C1
:10466000A44A06AA01008055555529000000000003
:1046700000000000A0555555190000A95A46AA028D
:104680000040565555A501000000000000000069DB
:10469000555555190000695A86AA060040565555C9
:1046A000950600000000000000405A5555550900CD
:1046B000002A598686060040565555551A000000B6
:1046C0000000000040565555550900002A598686BD
:1046D0000600405655555519000000000000009096
:1046E000555555550A00006A5A86960600405A5597
:1046F00055556500000000000000A4555555A91A45
:104700000000A98A46AA060040AA5A5555950100FC
:104710000000000000685555A516180000A886097D
:10472000AA02004042A9555595060000000000006D
:1047300059A9566A511800005091186400004002AF
:10474000905AA955060000000000405A55A906904D
:104750001A0000006024000000801A00A95A5519B0
:104760000000000000405655691A506900000024FE
:1047700060000000A01640AA565529000000000065
:104780009055551AA45595010000A9AA0100006989
:1047900000A5415A55650000000000905595025053
:1047A0005A55060040AAAA06004006551A00695547
:1047B000A500000000006455A50055A555190090FE
:1047C0006A951A009051A50500A4559501000000B6
:1047D00000645529005555566400A41AA96A00645E
:1047E000545A5500905695020000000068550A4042
:1047F00055556990965A5A699A161994565501401A
:1048000056550600000000599506405555A5416AC9
:1048100081AAAA0AA9066555550100595506000046
:1048200000005A950100555555010140AA6A0A40F9
:1048300006595555010069551A0000004056A5005B
:10484000005555550100409AAA06000155555501DD
:10485000006455190000004056650000555555008C
:1048600000006A950600005555550000A055190036
:1048700000004056AAAAAAAA5555000000A9AA01FC
:104880000000555555A5AAA6552900000080A61A76
:10489000004055AA16000000901A00000054A9AA72
:1048A000555595AA6500000090550A000000541562
:1048B000000000000600000050560500004096650C
:1048C00000000090550600000000000000004006B7
:1048D000000000405505000040566500000090555E
:1048E0000200000000000000004006000000000080
:1048F000000000005A6500000090950200000000D2
:104900000000000040060000000000000000005908
:10491000A500000090950100005505000000004032
:104920000600000000005415000059A5000000908A
:1049300095010090AAAA5600000040060000005011
:1049400055AA6A010059A500000090950100A9AA86
:10495000AA16000000400600000050A9AAAA0600FE
:104960005995000000909500A5AA5A956A0000008C
:10497000400600000090AAA5AA5A00689500000011
:1049800090A595565A5555A91600004006000040BE
:10499000A9565555AA5A689500000090A55A805608
:1049A000555555AA560040060050A96A5555552937
:1049B00094699500000090A9019056555555A5AAF7
:1049C0005A555655AAAA555555552900A99500007E
:1049D0000090A500905555555555A9AAAAAAAAAA6E
:1049E00056555555556500A4A500000090A50090AA
:1049F00055555555555595AAAA6A55555555555568
:104A0000650064A500000090A500905555555555CA
:104A100055555555555555555555556500646500C1
:104A2000000090950090555555555555555555557F
:104A30005555555555556500646500000090960123
:104A400090565555555555555555555555555555DA
:104A5000556900686500000040960190565555550F
:104A60005555555555555555555555552900686554
:104A700000000040960180565555555555555555E1
:104A80005555555555555529005969000000409612
:104A900001405A555555555555555555555555552A
:104AA000555519005919000000009A02405A5555F1
:104AB000555555555555555555555555551A005932
:104AC00019000000005906005A55555555A95A5568
:104AD0005555AA5A555555550A0059190000000058
:104AE00059060069555555A5AAAA5555A5AAAA550E
:104AF00055559506005A0A00000000680A006855DE
:104B00005555A956A55A55AA55A55655559502006D
:104B1000560600000000641900A45555556A555505
:104B2000AAA55A55555A5555A501409602000000B0
:104B300000A01900A0555595565555A5AA5555558F
:104B4000695555A500809601000000009025008061
:104B5000565595565555956A555555A9555569005B
:104B600080A50000000000906600405A55A55555EC
:104B7000555555555555A555551A009065000000D9
:104B8000000040A600006955A55555555555555589
:104B900055A555950600A0690000000000009A0187
:104BA00000A855A55555555555555555A555A5021A
:104BB000006419000000000000690600A056A55519
:104BC00055555555555555A555A90000680A00007D
:104BD00000000000640600805AA5555555555555EE
:104BE0005555A5556A00009906000000000000A078
:104BF0001900006A955655555555555555A5950AB0
:104C000000009A01000000000000902A0000A49516
:104C1000565555555555555569A901004066000032
:104C20000000000000406A000090AA5A55555555F2
:104C3000555555696A0000902A00000000000000E8
:104C400000A9010094AA5A55555555555555AA6ABB
:104C50000100A01A0000000000000000A406006986
:104C6000556A555555555555956A950600A4060043
:104C700000000000000000900A800600A455555571
:104C8000555555A506002900A901000000000000A7
:104C90000000402A900000805A55555555556A002D
:104CA00000A0406A00000000000000000040AA646C
:104CB000000040AA6A555595AA2A000080911A0062
:104CC000000000000000000090AA2A00000049A592
:104CD000AAAAAA1519000040A606000000000000BC
:104CE000000000A0A51A00000009005555050009A4
:104CF000000000AA0A000000000000000000A069F7
:104D00001A00000018000000000006000000691AE8
:104D1000000000000000000000A05A0A0000001877
:104D2000000000000006000000590A00000000001A
:104D300000000000A5AA0A00000018000000000002
:104D400006000000996A0000000000000000005901
:104D5000A91A00000058010000005006000000A938
:104D6000A601000000000000004056691900000084
:104D7000A9AAAAAAAAAA0A000000AA9606000000E8
:104D80000000000090565A29000000AAAAAAAAAA68
:104D9000AA1A000040565A0A0000000000000090C5
:104DA0009556650000405AA556955A552A00008030
:104DB0005669190000000000000064A55595010027
:104DC00090AAAAA66AAAAA6A0000A055A52900006E
:104DD0000000000000646555551A0069A9AA5555E0
:104DE000AAAA95060069559566000000000000001B
:104DF00068555555A9951A40A5AAAA6A05406A950D
:104E00005A5555660000000000000059555555954B
:104E1000AA0100A45556290000A4AA555555A5007D
:104E20000000000000005955555555650000649577
:104E30005A2500009055555555A50000000000006A
:104E400000595555555569000064955A2900009040
:104E50005555555595000000000000005955555511
:104E60005519000064555619000040565555559582
:104E7000000000000000005955555555190000A0CC
:104E800055560900004056555555A5000000000034
:104E9000000059555555550600009056560600001D
:104EA0000059555555A50000000000000058555503
:104EB0005595020000405AAA01000000685555555A
:104EC000650000000000000064555555A501000074
:104ED00000A41A000000006455555565000000004C
:104EE00000000064555555690000000000000000F6
:104EF0000000905555552900000000000000505555
:104F000055551500000000000000000000405555F8
:104F10005515000000000000412F0000442F000044
:104F2000452F0000492F0000562F0000572F00008A
:104F300033313B32326D000033323B32326D000090
:104F400033333B32326D000033343B32326D00007C
:104F500033353B32326D000033363B32326D000068
:104F6000804F000800000020840000003016000878
:104F70000450000884000020641800004016000857
:104F800000000000010203040102030406070809EF
:104F900002040608000000000000000000A24A040D
:104FA00000000000000000000102030406070809D9
:104FB00000000000184F0008204F00082C4F000888
:104FC000244F00081C4F0008284F0008504F0008CD
:104FD000304F0008404F0008584F0008384F000875
:104FE000484F000800000000000000000000000022
:104FF00000000000010000000000000001000000AF
:0450000000000000AC
:04000005080000ED02
:00000001FF
