:020000040800F2
:10000000E00700200101000895120008F30900082C
:10001000911200087D080008FF1D00080000000084
:100020000000000000000000000000006919000846
:10003000810800080000000029130008BD1A00080C
:100040001B0100081B0100081B0100080117000824
:100050001B0100081B0100081B0100081B01000810
:100060001B0100081B0100081B0100081B01000800
:100070001B0100081B0100081B0100081B010008F0
:100080001B0100081B0100081B0100081B010008E0
:100090001B0100081B0100081B0100081B010008D0
:1000A0001B0100081B0100081B0100081B010008C0
:1000B0001B0100081B0100081B0100081B010008B0
:1000C0001B0100081B0100081B0100081B010008A0
:1000D0001B010008211B00081B0100081B01000870
:1000E0001B0100081B0100081B010008DFF80CD0F1
:1000F00000F0E0FA00480047AD350008E0070020B6
:100100000648804706480047FEE7FEE7FEE7FEE7B1
:10011000FEE7FEE7FEE7FEE7FEE7FEE7C11A00089E
:10012000ED0000082DE9F05F0546002092469B4651
:1001300088460646814640241BE0284641464746FD
:10014000224600F026F953465A46C01A914110D370
:1001500011461846224600F00DF92D1A67EB0108EA
:100160004F4622460120002100F004F917EB000958
:100170004E41201EA4F10104DFDC484631462A46E8
:100180004346BDE8F09FD2B201E000F8012B491EC2
:10019000FBD270470022F6E710B513460A46044624
:1001A0001946FFF7F0FF204610BD30B505462A4638
:1001B0000B4612F8010B13F8014B08B1A042F8D01E
:1001C0001CB1002802D06D1CF1E7284630BD421C4E
:1001D00010F8011B0029FBD1801A704730B5054685
:1001E0000020034600E05B1C934205D2EC5CC85C37
:1001F000201A01D1002CF6D130BD2DE9FE4F8046EA
:1002000081EA0300C00F0C46009021F0004123F06A
:100210000045B8EB0200A94105D240462146904670
:100220001C460B46024623F00040104347D0270DE2
:10023000C7F30A00C3F30A510290401A0190402804
:100240006BDAC3F3130040F4801B0098924620B190
:100250000023D2EB030A63EB0B0B01985946C0F164
:100260004002504600F086F806460D465046594674
:10027000019A00F09EF810EB08006141002487EA23
:10028000115284EAE7731A4340D0009A62B3019A8C
:10029000012A4FEA075215DC001B61EB02014FF007
:1002A000004202EA0752CDE90042001C41F58011EC
:1002B00032462B4600F09EF803B0BDE8F08F404672
:1002C0002146F9E7001B61EB0201001C41F5801398
:1002D00000185B412018A2F5001747EB030140EA24
:1002E000D570B6196D4111E06D084FEA360645EA42
:1002F000C0754FEA0752001B61EB0201001C41F57B
:10030000801149084FEA30000019514132462B460E
:1003100003B0BDE8F04F00F05EB800980122400045
:100320000023D0EB020263EBE073009821464FEA12
:10033000E074B8EB000061EB0401E9E783F00043EF
:100340005BE781F0004158E730B50B4601460020DD
:100350002022012409E021FA02F59D4205D303FA87
:1003600002F5491B04FA02F52844151EA2F1010208
:10037000F1DC30BD202A04DB203A00FA02F1002033
:1003800070479140C2F1200320FA03F319439040D3
:100390007047202A04DB203A21FA02F0002170473E
:1003A00021FA02F3D040C2F12002914008431946DD
:1003B0007047202A06DBCB17203A41FA02F043EAC5
:1003C000E07306E041FA02F3D040C2F1200291400E
:1003D00008431946704710B5141E73F1000408DA7B
:1003E000401C41F1000192185B411A4301D120F0F9
:1003F000010010BD2DE9F04D92469B4611B1B1FAB6
:1004000081F202E0B0FA80F220329046FFF7B2FFAC
:1004100004460F4640EA0A0041EA0B0153465A4699
:10042000084313D0114653EA010019D0C8F1400225
:100430005046FFF7AEFF05460E4650465946424627
:10044000FFF798FF084305D0012004E02046394615
:10045000BDE8F08D0020054346EAE0762C433743A3
:100460000A986305E40AA0EB08000022FD0A44EAAA
:1004700047540A3002D500200146E9E7010510196A
:100480006941DDE9084500196941BDE8F04DA2E781
:100490002DE9FE4F81EA030404F0004421F00041FD
:1004A00000944FF0000B23F0004350EA01045ED0AB
:1004B00052EA03045BD0C3F30A54C1F30A552C4437
:1004C000A4F2F3340194A0FB0254C1F3130141F4EC
:1004D0008011C3F3130343F4801301FB024400FBB8
:1004E000034E840A970A44EA815447EA8357A4FBDF
:1004F000076802958D0A05FB07854FEA932C04FBDC
:100500000C542705029D4FEA065847EA1637B5EB0B
:1005100008056EEB070C870E920E47EA811742EA38
:100520008312A7FB0201B6EB0B0164EB00042B0D59
:1005300043EA0C335E1844EB1C50DA465146E7FBA5
:100540000201C5F313044FEA0B3343EA14534FEA95
:100550000432019C43EA0603A4F10C040294009CBB
:10056000CDE900B4FFF746FF03B0BDE8F08F0020EF
:100570000146F9E72DE9F04D81EA030404F0004B50
:1005800021F0004514464FF0000A23F0004150EAE4
:10059000050220D054EA01021DD0C5F30A570246D5
:1005A000C5F31303C1F31300C1F30A5640F48015D9
:1005B00043F48013A7EB0608101BD64608F2FD385B
:1005C00073EB050002D308F1010801E092185B41CA
:1005D000B8F1000F03DA00200146BDE8F08D0020DD
:1005E0004FF48011064684460EE0171B73EB050797
:1005F00005D3121B63EB050306434CEA010C4908C3
:100600004FEA300092185B4150EA0107EDD152EAFF
:10061000030012D082EA040083EA0501084305D0F2
:10062000101BAB4106D20122002306E000224FF04E
:10063000004302E06FF0010253101AEB06004CEB8E
:10064000085110EB0A0041EB0B01BDE8F04DFFF73C
:10065000C2BEC1F30A52C1F3130140F2FF3341F4A9
:1006600080119A4202DA00200146704740F233437B
:100670009A42A2F2334202DC5242FFF78ABEFFF7EF
:1006800079BE000030B5041E71F1000404DB4FF0A8
:100690000044404264EB0101141E73F1000405DBC9
:1006A0001C464FF00043524263EB0403994208BFDB
:1006B000904230BD064C074D06E0E06840F0010373
:1006C00094E8070098471034AC42F6D3FFF712FDC8
:1006D000083B0008283B00082DE9F04106460F467C
:1006E00015467019B0F5807F02DD0120BDE8F0816C
:1006F00000F014FDA02000F0D9FC00F05FFD18B957
:1007000000F02AFD0220F1E7F0B200F0CFFC00F08B
:1007100055FD18B900F020FD0320E7E700F0FEFCCE
:10072000A12000F0C3FC00F049FD18B900F014FD51
:100730000420DBE700240DE0681EA04204D1002065
:1007400000F0A2F9385503E0012000F09DF938557A
:10075000601C84B2AC42EFDB00F0FEFC0020C5E779
:100760001CB516A00068019000200090042201A989
:1007700000F026F804460CB120461CBD0A2002F009
:100780002FF8042269460020FFF7A6FF04461CB19B
:1007900004F10A00C0B2F0E700210BE01DF80100EF
:1007A00001AA525C904203D001F11400C0B2E4E708
:1007B000481CC1B20429F1DB0020DEE755AA12343F
:1007C0002DE9F04105460F461646A819B0F5807F81
:1007D00002DD0120BDE8F081002426E000F09EFC4F
:1007E000A02000F063FC00F0E9FC18B900F0B4FCB4
:1007F0000220EFE72919C8B200F058FC00F0DEFC37
:1008000018B900F0A9FC0320E4E7385D00F04EFCC5
:1008100000F0D4FC18B900F09FFC0420DAE700F0E7
:100820009BFC00F02EF8601C84B2B442D6DB0020A2
:10083000D0E710B5012000F0B9FD002000F0B6FDB2
:1008400010BD000008B5014600200090034800904C
:100850000098084400900098008808BD006C004093
:1008600008B500220092044A0092009A02440092C5
:10087000009A116008BD0000006C004000BFFEE758
:10088000704710B54FF47A7400BF00F047FCA02009
:1008900000F00CFC00F092FC10B100F05DFC09E0EF
:1008A00000F05AFC601E84B204B903E0642001F039
:1008B000BDFFEAE700BF10BD2DE9F041024600256B
:1008C0000026002000230024002791F803C00CF02C
:1008D0000F0591F803C00CF0100CBCF1000F03D011
:1008E00091F802C04CEA050591F800C0BCF1000F78
:1008F00031D0146800202BE04FF0010C0CFA00F30B
:10090000B1F800C00CEA03069E4220D183004FF0EC
:100910000F0C0CFA03F7BC4305FA03FC4CEA040481
:1009200091F803C0BCF1280F06D14FF0010C0CFA6E
:1009300000FCC2F814C00AE091F803C0BCF1480FF3
:1009400005D14FF0010C0CFA00FCC2F810C0401C9D
:100950000828D1D31460B1F800C0BCF1FF0F34DD1A
:10096000546800202EE000F1080C4FF0010808FA4E
:100970000CF3B1F800C00CEA03069E4221D18300BB
:100980004FF00F0C0CFA03F7BC4305FA03FC4CEADA
:10099000040491F803C0BCF1280F05D100F1080C44
:1009A00008FA0CF8C2F8148091F803C0BCF1480FA3
:1009B00007D100F1080C4FF0010808FA0CF8C2F852
:1009C0001080401C0828CED35460BDE8F081024658
:1009D000002093680B400BB1012000E0002070471D
:1009E00041617047016170470AB1016100E04161F6
:1009F000704700BFFEE7000010B540211148FFF727
:100A0000EFFF022001F012FF80210E48FFF7E8FF00
:100A1000022001F00BFF40210A48FFF7E3FF052009
:100A200001F004FF40210748FFF7DAFF022001F040
:100A3000FDFE80210348FFF7D5FF022001F0F6FEFE
:100A400010BD0000000C014010B540210D48FFF71B
:100A5000C7FF022001F0EAFE80210A48FFF7C2FF2B
:100A6000022001F0E3FE40210648FFF7BBFF05200E
:100A700001F0DCFE40210348FFF7B2FF022001F045
:100A8000D5FE10BD000C014070B505460024802144
:100A90001848FFF7A7FF00261BE06006040E402160
:100AA0001448FFF79DFF022001F0C0FE40211148CD
:100AB000FFF798FF022001F0B9FE80210D48FFF7F3
:100AC00086FF08B144F00104022001F0AFFE701C63
:100AD000C6B2082EE1DB40210648FFF781FF022065
:100AE00001F0A4FE15B1FFF787FF01E0FFF7ACFFAF
:100AF000204670BD000C014070B5A4B000268021D6
:100B000004A8FFF747FB3EA0A221444B44A2CDE935
:100B100000104BA1032001F0B3FF4AA0A3213F4BDB
:100B20003FA2CDE9001046A1032001F0A9FF4CA08F
:100B3000A4213A4B3AA2CDE9001041A1032001F0D3
:100B40009FFF08251EE000F0E9FA6906080E00F094
:100B5000ADFA00F033FB70B104A88555701CC6B225
:100B600042A0B4212D4B2EA2CDE90105009134A164
:100B7000032001F085FF00F0EFFA0A2001F056FE95
:100B8000681CC5B2772DDEDD3EA0BE21234B24A21A
:100B9000CDE900102AA1032001F072FF3DA0BF2182
:100BA0001E4B1FA2CDE90106009125A1032001F0F3
:100BB00067FF002414E004A8005D611C3CA2C2236E
:100BC000CDE90032CDE90210144B15A21CA103207F
:100BD00001F056FF04A9085D00F084F8601CC4B25F
:100BE000B442E8DB4EB939A0C7210C4B0CA2CDE9C9
:100BF000001013A1032001F043FF24B070BD0000DA
:100C00005374617274696E6720493243206465765B
:100C1000696365207363616E2E2E2E0065390008AE
:100C20002E2E5C534F4654574152455C6565707299
:100C30006F6D5C736F66745F6932632E63000000D2
:100C4000542E5400416464726573732072616E6740
:100C5000653A2030783038202D2030783737000042
:100C60005363616E6E696E670000000044657669CB
:100C7000636520666F756E643A203078253032588F
:100C8000000000005363616E20636F6D706C6574CB
:100C900065642100546F74616C20666F756E64200A
:100CA00025642049324320646576696365733A00A0
:100CB0004465766963652025643A20416464726501
:100CC0007373203078253032580000004E6F204971
:100CD0003243206465766963657320666F756E6460
:100CE000000000001CB504462046512C3BD020DCFF
:100CF0003F2855D00EDC232876D006DC0A2874D095
:100D0000192873D01D2872D163E0272847D02928DD
:100D1000F9D1A8E04A2850D006DC402868D04828FD
:100D200049D04928EFD147E04B2847D05028EAD195
:100D300018E05A285DD008DCA0F15200062856D2EF
:100D4000DFE800F01213141516176B2873D004DCBB
:100D500060287DD06828D6D116E0762854D0772830
:100D6000D1D152E000BF00BF00BF00BF00BF00BF35
:100D700000BF5BA0D021614B61A2CDE9001068A14A
:100D8000032001F07DFEA8E066A0D4215B4B5CA2AD
:100D9000CDE9001062A1032001F072FE9DE000BFCA
:100DA00066A0D821554B56A2CDE900105CA10320C6
:100DB00001F066FE91E000BF00BF00BF68A0DC212B
:100DC0004E4B4FA2CDE9001055A1032001F058FE73
:100DD00083E068A0E021494B49A2CDE9001050A171
:100DE000032001F04DFE78E01AE05EE046E068E0A6
:100DF00023E067A0E421414B41A2CDE9001048A1C6
:100E0000032001F03DFE68E000BF6AA0E8213B4BF3
:100E10003BA2CDE9001042A1032001F031FE5CE0CD
:100E20006CA0EC21354B36A2CDE900103CA103208B
:100E300001F026FE51E02CE00AE06DA0F0212F4BDE
:100E40002FA2CDE9001036A1032001F019FE44E0E5
:100E500070A0F421294B2AA2CDE9001030A1032073
:100E600001F00EFE39E071A0F821244B24A2CDE957
:100E700000102BA1032001F003FE2EE072A0FC2144
:100E80001E4B1FA2CDE9001025A1032001F0F8FDA3
:100E900023E074A04FF48071184B19A2CDE9001023
:100EA0001FA1032001F0ECFD17E074A04FF4827144
:100EB000124B13A2CDE9001019A1032001F0E0FDAF
:100EC0000BE075A04FF484710C4B0DA2CDE900101E
:100ED00013A1032001F0D4FD00BF00BF1CBD000022
:100EE0002028454550524F4D202D203234437878EC
:100EF0002073657269657329000000007539000868
:100F00002E2E5C534F4654574152455C65657072B6
:100F10006F6D5C736F66745F6932632E63000000EF
:100F2000542E54002028525443202D204453313352
:100F300030372F44533332333129000020284C43BB
:100F400044202D2050434638353734206578706171
:100F50006E73696F6E20626F617264290000000019
:100F60002028414443202D2050434638353931292B
:100F7000000000002028416363656C65726F6D6539
:100F8000746572202D204144584C333435290000BB
:100F9000202854656D706572617475726520736583
:100FA0006E736F72202D204D4C58393036313429F4
:100FB00000000000202854656D702F48756D692F62
:100FC0005072657373757265202D20424D4532381D
:100FD0003029000020284C696768742073656E739F
:100FE0006F72202D20424831373530290000000033
:100FF000202854656D702F48756D692073656E7378
:101000006F72202D204854553231442F53485432AA
:10101000312900002028464D20726164696F202D1F
:101020002054454135373637290000002028436FCA
:101030006C6F722073656E736F72202D2054435352
:1010400033343732352900002028416363656C65ED
:10105000726F6D65746572202D204C49533344487E
:101060002900000020284779726F73636F70652034
:101070002D204C33473432303044290020284F4C47
:10108000454420646973706C6179202D205353446A
:1010900031333036290000002028556E6B6E6F7793
:1010A0006E206465766963652900000070B50446AA
:1010B000002520E040211848FFF792FC022001F0B3
:1010C000B5FB04F0800020B180211348FFF78AFCB3
:1010D00003E080211048FFF783FC022001F0A6FB0B
:1010E00040210D48FFF77EFC052001F09FFB6006C4
:1010F000040E681CC5B2082DDCDB40210648FFF752
:101100006FFC022001F092FB80210348FFF76AFC8C
:10111000022001F08BFB70BD000C014010B5802156
:101120000C48FFF75FFC40210A48FFF75BFC0520F5
:1011300001F07CFB80210748FFF752FC052001F0FD
:1011400075FB40210348FFF74BFC052001F06EFBC7
:1011500010BD0000000C014010B580210C48FFF7C5
:101160003FFC40210A48FFF73BFC052001F05EFBF5
:1011700040210748FFF736FC052001F057FB80218E
:101180000348FFF72FFC052001F050FB10BD0000C5
:10119000000C014070B504466006050E0026FFF7FE
:1011A000BDFF2846FFF782FF00F008F808B10126CE
:1011B00000E00026FFF7D0FF304670BD10B54FF4B9
:1011C0007A7480211448FFF70DFC022001F02EFBF9
:1011D00040211148FFF706FC022001F027FB0BE03D
:1011E000601E84B22CB940210B48FFF7F9FB0020A8
:1011F00010BD012001F01AFB80210748FFF7E7FB33
:101200000128EDD040210448FFF7EAFB022001F05D
:101210000DFB0120ECE70000000C01400146CA175D
:1012200001EB92729210A1EB820292B9642091FBC1
:10123000F0F200FB121050B94FF4C87091FBF0F2BD
:1012400000FB121008B9012070470020FCE70120C4
:10125000FAE70020F8E7000008B50121102000F0AF
:1012600085F84FF40050ADF8000010208DF8030011
:1012700002208DF8020069460448FFF71DFB00229A
:101280004FF400510148FFF7AFFB08BD00100140CB
:1012900000BFFEE77047000070B5002100230F2259
:1012A000C47804B3154C246804F4E064C4F5E06425
:1012B000210AC1F10403CA40447804FA03F1847896
:1012C0001440214309010E4C0678A155047804F01E
:1012D0001F050124AC4005786D11AD0005F1E02536
:1012E000C5F8004109E0047804F01F050124AC4072
:1012F000044D0678761145F8264070BD0CED00E0EF
:1013000000E400E080E100E002490143024A11608C
:10131000704700000000FA050CED00E0014908628A
:101320007047000000000E427047000029B1064AD5
:10133000D2690243044BDA6104E0034AD269824372
:10134000014BDA61704700000010024029B1064AE3
:1013500012690243044B1A6104E0034A1269824392
:10136000014B1A61704700000010024029B1064A83
:1013700092690243044B9A6104E0034A92698243F2
:10138000014B9A61704700000010024029B1064AE3
:10139000D2680243044BDA6004E0034AD268824315
:1013A000014BDA60704700000010024001490860FC
:1013B000704700004004424230B500210022002462
:1013C00000232D4D6D6805F00C0121B1042905D0D5
:1013D000082923D105E0294D056022E0274D05604D
:1013E0001FE0254D6D6805F47012234D6D6805F4FE
:1013F0008034022505EB92421CB9214D554305600E
:101400000BE01D4D6D6805F400351DB11C4D5543B5
:10141000056002E0194D5543056002E0174D056077
:1014200000BF00BF144D6D6805F0F0010909154DAE
:101430006B5C0568DD4045600F4D6D6805F4E0614B
:10144000090A104D6B5C4568DD4085600A4D6D688A
:1014500005F46051C90A0B4D6B5C4568DD40C56001
:10146000054D6D6805F44041890B074D6B5CC568FF
:10147000B5FBF3F5056130BD0010024000127A00A3
:1014800000093D00000000201000002010B50146BA
:101490000022002300204A11012A02D1094C2368AE
:1014A00006E0022A02D1074C236A01E0054C636A78
:1014B00001F01F02012494401C400CB1012000E007
:1014C000002010BD0010024000210B4A11700A4A92
:1014D000203A82F82010012802D0042808D103E025
:1014E0000121054A117004E00521034A117000E052
:1014F00000BF00BF70470000201002400149086093
:10150000704700003C0442420249096A0143014A13
:101510001162704700100240024909888143014A64
:1015200011807047042800400348008840F01000F4
:1015300001490880704700000428004003480088E3
:101540004FF6EF71084001490880704704280040B9
:1015500070B500260024002500F07AF806463848C9
:10156000B6FBF0F437480088A0423CD035490C80E7
:1015700040F2B27510E02846FFF750FE40B1B4F5D6
:10158000B77F02D3A4F5B77404E0681C85B206E007
:10159000A4F26D14681C85B2B4F5B67FEBD800BF19
:1015A00029488580002516E027498888FFF736FE00
:1015B00030B1012D04D11D2C01D31D3C09E00CE0FC
:1015C0002248405DA04203D82048405D241A00E034
:1015D00003E0681C85B21C2CE6D200BF681C1A49C7
:1015E0008871601CC8711648B6FBF0F100FB1164ED
:1015F0004FF46160B4FBF0F0134908704FF4616080
:10160000B4FBF0F100FB11403C21B0FBF1F00E49BE
:1016100048704FF46160B4FBF0F100FB11403C21D5
:10162000B0FBF1F201FB1200074988700B46DA7932
:101630009979988800F028F803490872002070BD55
:10164000805101003000002040010020593900087D
:10165000002103480188001F008841EA00407047CC
:101660001C28004001460020064A12880A40D0B2D9
:10167000044A121F12880A4012B108B1012000E08A
:101680000020704704280040F0B503460C4615467C
:10169000642093FBF0F0C6B2642093FBF0F700FBEC
:1016A0001730C1B2132E02DD01F16400C1B2084649
:1016B000CF1701EB977701EBA707BAB2072092FB90
:1016C000F0F700FB172082B25719601EDFF82CC01C
:1016D0001CF80000384482B2CF1701EB9777BF1097
:1016E000A1EB87071FB9032C01DA501E82B2072035
:1016F00092FBF0F700FB1720C0B2F0BD4D39000897
:1017000010B50120FFF7AEFF08B1FFF721FF02205F
:10171000FFF7A8FF10B10220FFF7FEFE0520FFF73C
:10172000FBFE00F005F910BD29B1064A12880243FC
:10173000044B1A8004E0034A12888243014B1A804A
:1017400070470000002800401CB5002401214FF024
:10175000C050FFF7EBFD0120FFF7E0FD0420FFF78D
:1017600071F845F2500188423FD0FFF762F801203E
:10177000FFF7AAFE04E0601CC4B20A2001F030F8B2
:101780004120FFF783FE0028F5D0FA2C01DB012071
:101790001CBD4FF48070FFF7B7FE0120FFF7AEFECF
:1017A00000F0C6F800F0CEF801210846FFF7BCFFB4
:1017B00000F0BEF8FFF7B8FE47F6FF7000F0A8F89B
:1017C00000F0B6F8372000210A230222CDE90010EC
:1017D0000C2140F2D97000F027F8FFF7AFFE45F278
:1017E00050010420FFF73CF807E000F0ABF80121BE
:1017F0000846FFF799FF00F09BF800F004F8FFF7A8
:10180000A7FE0020C4E708B503208DF800000020E3
:101810008DF801008DF8020001208DF80300684664
:10182000FFF73AFD08BD00002DE9F05F06460F46C0
:1018300090469946DDE90AAB002440F2B270864238
:1018400003DB40F63300864202DD0120BDE8F09F55
:1018500040F2B2750AE02846FFF7E0FC10B12148DB
:10186000044401E020480444681C85B2B542F2DB20
:10187000781EC7B2002510E01C48405D40F2A3214D
:10188000484304EBC0143046FFF7C8FC18B1012DE3
:1018900001D117480444681C85B2BD42ECDBA8F1B5
:1018A000010040F2A321484304EBC014C9EB4910E6
:1018B000C0EB092004EB0014CAEB0A1004EB80040F
:1018C0005C4401214FF0C050FFF730FD0120FFF7CD
:1018D00025FD204600F00EF800F02AF8FFF738FE4C
:1018E0000020B3E70085E2018033E10159390008A7
:1018F0008051010000B50246FFF716FE100C0349A7
:101900000880091D0A80FFF719FE00BD1828004055
:1019100000B50246FFF708FEC2F303400349088002
:10192000091D0A80FFF70AFE00BD000008280040DC
:1019300000BF0348008800F020000028F9D070475D
:1019400004280040074800884FF6F7710840054911
:10195000088000BF0348008800F008000028F9D084
:101960007047000004280040704710B500F002F8EE
:1019700010BD00000CB500200190009033480068B5
:1019800040F480303149086000BF3048006800F4FE
:10199000003000900198401C0190009818B90198FF
:1019A000B0F5A06FF1D12948006800F4003010B103
:1019B0000120009001E0002000900098012843D110
:1019C0002348006840F0100021490860084600687C
:1019D00020F0030008600846006840F0020008603C
:1019E0001A484068194948600846406848600846F7
:1019F000406840F4806048600846406820F47C10ED
:101A000048600846406840F4E810486008460068AE
:101A100040F08070086000BF0C48006800F0007063
:101A20000028F9D00948406820F0030007494860C1
:101A30000846406840F00200486000BF0348406824
:101A400000F00C000828F9D10CBD00000010024085
:101A50000020024008B501210820FFF787FCC020C4
:101A6000ADF8000014208DF8030003208DF802006B
:101A700069460748FEF720FF40210548FEF7B2FF00
:101A800080210348FEF7AEFF0A2000F0A9FE08BD42
:101A9000000C0140042808D14FF0E021096941F011
:101AA00004014FF0E022116107E04FF0E0210969E5
:101AB00021F004014FF0E0221161704770470000EF
:101AC00010B51348006840F001001149086008464D
:101AD0004068104908400E494860084600680E49B1
:101AE00008400B4908600846006820F48020086020
:101AF0000846406820F4FE0048604FF41F008860EC
:101B0000FFF733FF4FF000600449086010BD00008C
:101B1000001002400000FFF8FFFFF6FE08ED00E0B5
:101B200010B540F225511D4800F0A5F810B31B4830
:101B300000F05CF9C4B21A48008800F40040C8B94B
:101B40001748008800F4804060B10A2C03D00020C0
:101B50001349088020E01248008840F400401049F2
:101B6000088019E00D2C06D10D48008840F4804013
:101B70000B49088010E00A480088C0F30D000949AD
:101B80000C5407480088401C054908800846008816
:101B9000C72801DD0020088010BD0000003801408A
:101BA000180000207800002021B1828942F4005200
:101BB000828104E082894DF6FF731A40828170476A
:101BC00010B504462048844209D101218803FFF75B
:101BD000DDFB00214FF48040FFF7D8FB32E01B48CB
:101BE000844209D101214804FFF7B0FB00214FF4E2
:101BF0000030FFF7ABFB25E01548844209D10121F5
:101C00008804FFF7A3FB00214FF48020FFF79EFB21
:101C100018E01048844209D10121C804FFF796FB5F
:101C200000214FF40020FFF791FB0BE00A488442AB
:101C300008D101210805FFF789FB00214FF480102E
:101C4000FFF784FB10BD0000003801400044004055
:101C500000480040004C0040005000400246002078
:101C6000B1F5007F00D100BF13880B400BB10120FC
:101C700000E00020704770B50246002400230025D4
:101C8000002040F66A16B14200D100BFC1F34215F0
:101C900001F01F03012606FA03F3012D02D19689F4
:101CA000334006E0022D02D1168A334001E0968AC5
:101CB00033400C12012606FA04F41688344013B19E
:101CC0000CB1012000E0002070BDF0B503460024F7
:101CD00000260025002040F66A17B94200D100BF57
:101CE0001846C1F3421401F01F06012707FA06F552
:101CF000012C01D10C3004E0022C01D1103000E0A5
:101D000014301AB107682F43076002E00768AF4339
:101D10000760F0BD2DE9F04786B005460E46002469
:101D2000A24600BFA1460027B08900B100BF2F46E0
:101D30002C8A4CF6FF700440F08804432C82AC8956
:101D40004EF6F3100440B088318908437189084386
:101D50000443AC81AC8A4FF6FF400440B089044391
:101D6000AC8201A8FFF728FB1F48874202D1DDF8AB
:101D700010A001E0DDF80CA0A88900F4004040B1FB
:101D80000AEBCA0000EB0A1031684900B0FBF1F819
:101D900007E00AEBCA0000EB0A1031688900B0FBCB
:101DA000F1F86420B8FBF0F004012009642101FB84
:101DB0001089A88900F4004040B1322000EBC9002E
:101DC000B0FBF1F000F00700044308E0322000EB24
:101DD00009106421B0FBF1F000F00F0004432C81E6
:101DE00006B0BDE8F0870000003801400146888851
:101DF000C0F308007047C1F308028280704700BF3B
:101E0000FEE700000FB4054B10B503A9044A029881
:101E100000F01CF910BC5DF814FB000089340008C8
:101E2000740000200FB41CB50246002007AC002946
:101E30000BD0491ECDE90021054B6A462146069884
:101E400000F004F9009A002111701CBC5DF814FB2D
:101E50007B2700080FB4084B10B504A902AA039809
:101E600000F0F4F8044602A9002000F091FC20469E
:101E700010BC5DF814FB0000912700087CB50446F7
:101E800000201D46164600290BD0491ECDE9004111
:101E9000044B6A462946304600F0D8F8009A0021E3
:101EA00011707CBD7B27000802E008C8121F08C122
:101EB000002AFAD170477047002001E001C1121FCB
:101EC000002AFBD1704700002DE9FF5F82B000219E
:101ED000DDE90430020DDDF840B0034318D044F6CC
:101EE0001050A2F2FF3242431514119801281FD05E
:101EF000A5EB0B00401C5FEA000A4FF000064E4FB6
:101F0000DFF83891B046504615D5CAF1000413E009
:101F1000119801244AA3012801D16FEA0B0102980C
:101F2000119AC0E90031C0E9024206B0BDE8F09F55
:101F3000CBF10000DFE704460021404A491842EB9C
:101F40000450CDE9001012E0E00707D032463B46CE
:101F500040464946FEF79CFA8046894632463B4653
:101F600010461946FEF794FA06460F466410002CF8
:101F7000EAD1DDE90401DDE90023BAF1000F06DA58
:101F8000FEF786FA42464B46FEF782FA05E0FEF778
:101F9000F1FA42464B46FEF7EDFA04460E460022A1
:101FA000284BFEF76FFB03D84FF0FF30014607E0E8
:101FB0000022254B20463146FEF71FF9FEF749FB6C
:101FC000102409E0002C0ADB0A220023FEF7AAF8FD
:101FD000039B30321A55641E50EA0102F2D1641C90
:101FE000039AC4F111031444119A012A03D0012267
:101FF00008430DD10AE0084304D000204FF0110B34
:10200000119072E7A3EB0B056D1E0DE05B4504DD3F
:102010004FF0000205F1010504E003DA4FF0000281
:10202000A5F10105002AECD002981199C0E902310E
:10203000C0E9004579E70000000014400000F03FCF
:10204000300000000000F0430000E03F2DE9FF4FAA
:1020500095B09B468946064600250FE2252877D194
:1020600000242746F84A0121059400E0044316F8AD
:10207000013F203B01FA03F01042F7D130782A28C3
:1020800011D06FF02F033078A0F13002092A16D852
:10209000059A44F0020402EB820203EB4202104470
:1020A000761C0590EFE759F8042B0592002A03DA15
:1020B000504244F40054059044F00204761C3078F9
:1020C0002E2816D116F8010F44F004042A280DD04A
:1020D0006FF02F023078A0F13003092B09D807EBFD
:1020E000870302EB4303C718761CF3E759F8047B18
:1020F000761C30786C280FD006DC4C2817D0682866
:102100000DD06A2814D104E0742810D07A280FD199
:102110000DE044F400140AE044F4801401E044F4B7
:1021200040147278824202D104F58014761C761C29
:10213000307866280BD013DC582877D009DC0028CB
:1021400075D04528F6D04628F4D047281AD19DE10D
:1021500018E0632835D0642879D0652812D195E13C
:10216000702873D008DC6728F1D069286FD06E28FA
:102170000DD06F2806D1B5E073282CD0752875D006
:10218000782874D05A46179990476D1C75E1C4F3AE
:102190000250022809D003280DD0D9F800100428D5
:1021A0000DD00D6009F1040967E1D9F80010EA17B4
:1021B000C1E90052F6E7D9F800100D80F2E70D7082
:1021C000F0E719F8041B8DF8001000208DF80100CD
:1021D000EA46012003E059F804AB4FF0FF306107F5
:1021E0004FF0000102D40DE008F101018846B94228
:1021F0000FDA8045F8DB1AF808100029F4D108E05E
:1022000008F1010188468142FADB1AF8081000291A
:10221000F6D105985B46A0EB080721463846179A89
:1022200000F094FA284400EB080507E04DE029E1AE
:102230000DE01AF8010B5A4617999047B8F10108BA
:10224000F7D25B4621463846179A13E142E00A224C
:102250000092C4F302524FF0000A022A08D059F843
:1022600004CB032A4FEAEC710AD00DE029E02AE002
:1022700009F1070121F00702F2E802C1914609E0E5
:102280000FFA8CFC4FEAEC71042A03D14FFA8CFC54
:102290004FEAEC71002907DA0A460021DCF1000C54
:1022A00061EB02012D2202E0220504D52B228DF8DC
:1022B0000420012203E0E20701D02022F7E7904644
:1022C00059E00A2102E010220DE010214FF0000A2F
:1022D00000910BE010224FF0000A44F0040408279C
:1022E000009203E008224FF0000A0092C4F3025269
:1022F000022A05D059F804CB0021032A08D009E0AE
:1023000009F1070121F00702F2E802C1914605E058
:102310001FFA8CFC042A01D10CF0FF0C4FF00008CE
:10232000220728D5702806D0009B83F0100353EABB
:102330000A0305D00EE040228DF80420012208E0B7
:102340005CEA010206D030228DF804208DF80500E9
:1023500002229046009B83F0080353EA0A030AD145
:102360005CEA010201D1620705D530228DF8042014
:102370004FF001087F1E582804D034A003900EA807
:1023800002900DE036A0F9E753466046009AFDF74B
:10239000C9FE84460398825C0298401E0290027037
:1023A0005CEA0100F0D1029806A9081A00F1200A9F
:1023B000600702D524F4803400E00127574502DD90
:1023C000A7EB0A0000E0002000EB0A01009005984E
:1023D0004144401A0590E00306D45B462146179A13
:1023E000059800F0B3F90544002706E001A85A4615
:1023F000C05D179990476D1C7F1C4745F6DBE003D5
:102400000CD55B462146179A059800F09FF90544C4
:1024100004E030205A46179990476D1C0099481ED9
:1024200000900029F5DC08E0029802995A460078ED
:10243000491C0291179990476D1CBAF10001AAF14D
:10244000010AF1DC65E10000092801003031323376
:1024500034353637383961626364656600000000E0
:1024600030313233343536373839414243444546CA
:102470000000000000F058F90544761C3078002870
:102480007FF4ECAD19B02846BDE8F08F620700D4A8
:10249000062709F1070222F0070CFCE80223E146B7
:1024A00003F000485FEA080C02D00FF2702C0DE038
:1024B0005FEA045C02D50FF2682C07E05FEAC47C97
:1024C00002D00FF2602C01E0AFF2700C4FF0FF3839
:1024D00023F00043CDF850C065280CD006DC452819
:1024E00009D046281DD047283DD13DE0662818D0A8
:1024F00067287ED138E00021112F01DB112000E098
:10250000781CCDE9000106A90EA8FFF7DDFCDDE986
:102510000F010E9A03910021009207F1010A049124
:102520004DE04FF000400097CDE9011006A90EA83C
:10253000FFF7CAFCDDE90F0203920E9B11990022FE
:10254000DDF80CA00093049211B9791C00EB010A8C
:10255000B7EB0A0004D4C0F1FF3007F1010A049080
:10256000AAEB0700019044E0012F00DA01270021C7
:10257000112F01DD112000E03846CDE9000106A948
:102580000EA8FFF7A1FCDDE90F010E9A03910021CF
:1025900004910092BA4621070CD40399514500DA00
:1025A0008A46BAF1010F05DD009AAAF10101515CDA
:1025B000302908D0B84202DA10F1040F06DA0121FE
:1025C000CDE9011015E0AAF10101E9E7002805DCD9
:1025D000049901440491AAEB000102E0411C514519
:1025E00000DD8A460499401A401C01904FF00040DB
:1025F0000290200704D40198504501DBCDF80480F7
:1026000000208DF84F0002980DF14F07B0F1004FF8
:1026100025D02B200E9002984FF0020800280CDAEB
:10262000404202902D200E9007E00A210298FDF70B
:102630008BFE3031029007F8011DB8F10001A8F1BE
:102640000108F2DC02980028EFD1791E0E9808707C
:10265000307800F0200040F0450007F8020D12A885
:10266000C01B00F107081498007800B1012000EBAE
:102670000A01019801EBE07105984144401A401E9F
:102680000590E00306D45B462146179A059800F0B2
:102690005DF805441498007818B15A461799904788
:1026A0006D1CE00324D55B462146179A059800F07F
:1026B0004DF805441CE00498002807DBDDE9030120
:1026C000884203DD0098405C179901E0179930209B
:1026D0005A469047049805F10105401C0490019862
:1026E000401E019004D12E205A46179990476D1C28
:1026F000BAF10001AAF1010ADDDC05E017F8010BCF
:102700005A46179990476D1CB8F10001A8F10108CD
:10271000F4DC5B462146179A0598ABE62D000000D5
:102720002B000000200000002DE9F04104460025A8
:102730001E461746880404D405E039462020B047D9
:102740006D1C641EF9D52846BDE8F0812DE9F041E5
:10275000044600251E469046C80301D5302700E0F8
:102760002027880404D505E041463846B0476D1C53
:10277000641EF9D52846BDE8F0814A68002A06D0D3
:102780000A68531C0B6010704868401E4860704710
:102790000A68531C0B6010707047000010B56FF092
:1027A0000400FFF777F90A4800680A49B0FBF1F026
:1027B000094908700846007800EB4001C1EBC010E1
:1027C0004FF6FF7101EAC0000449088010BD000007
:1027D0001C00002000127A001400002016000020C7
:1027E0000146114A12884A434FF0E0235A61002201
:1027F0009A611A46126942F001021A6100BF4FF055
:10280000E022106900F001021AB100F48032002ABF
:10281000F5D04FF0E022126922F001024FF0E023E0
:102820001A6100229A617047160000200146114A81
:1028300012784A434FF0E0235A6100229A611A4607
:10284000126942F001021A6100BF4FF0E0221069E4
:1028500000F001021AB100F48032002AF5D04FF0E6
:10286000E022126922F001024FF0E0231A610022F7
:102870009A617047140000200748006840F080709B
:10288000054908600020054948600846006840F096
:102890000100086070470000FCED00E0001000E05F
:1028A00000B50948006800F0807008B9FFF7E4FF40
:1028B000002006494860064908600448006840F066
:1028C00001000249086000BDFCED00E0001000E0DE
:1028D000680000200E4840680E49086008460068FD
:1028E0000D490968884207D30A4800680A490968FF
:1028F000401A0A49086009E007480068C0F1FF3043
:10290000044909680844401C0449086070470000F5
:10291000001000E06C000020680000207000002023
:1029200070B586B00646002E1BD12848006888B9CD
:102930004FF4EF70264927A22BA3CDE90310CDE970
:10294000013200900B4631A236A1002000F098F829
:1029500000BFFEE74FF4EF721D491EA01B4B1B6822
:10296000984700240525314890F8880010B928467A
:1029700006B070BD00F086FA002420E004EB4400AD
:1029800000EB0411294823300844807C012814D12D
:1029900004EB440000EB0412244823301044411C93
:1029A00010223046FDF71AFC38B904EB440000EB66
:1029B00004111E482330455C03E0601CC4B2042CA3
:1029C000DCDB00BF00F092FA2846D1E7640000206B
:1029D0004C3A000874616720213D202828766F69F1
:1029E00064202A2930290000282573292068617372
:1029F00020617373657274206661696C656420611F
:102A0000742025733A256C642E0000002E2E5C5332
:102A10004F4654574152455C656C6F675C656C6FFF
:102A2000672E6300656C6F67000000004C0100209A
:102A300010B50024114890F88800012801D12046E3
:102A400010BD00F0A1FA04460CB12046F8E70120C1
:102A500000F02CFA0020094981F88B0081F88C00E5
:102A6000012000F0E9FB052000F0A2FA00F0FCFADA
:102A70000120024981F888002046E1E74C0100204E
:102A80000FB42DE9F04F8BB005460F469846DDF8A0
:102A900060903846FDF79BFB824600244FF0020B06
:102AA000002009900A90069007900890052D1CDDE3
:102AB000CB480068002811D14FF40F70C949CAA251
:102AC000D0A3CDE90310CDE9013200900B46D6A288
:102AD000DBA10020FFF7D4FF00BFFEE74FF40F7229
:102AE000C049C1A0BE4B1B689847D74890F88900E1
:102AF00020B90BB0BDE8F00F5DF814FBD2480078A8
:102B0000A84204DB3846FFF70BFFA84200DAF0E7E3
:102B1000CD49491C3846FDF748FB00B9E9E71AA83A
:102B2000059000F0AFF9C84890F88D0078B1C7481B
:102B30000119C7A2204600F027FC0444C54850F8FC
:102B40002520C2480119204600F01EFC0444012142
:102B5000284600F0ABFC40B1BF4850F82520BB48E8
:102B60000119204600F010FC04440221284600F020
:102B70009DFCE8B1B54801193A46204600F004FC36
:102B80000444BAF1080F0CD8CAF10801202206A8A3
:102B9000FDF7F9FAAD48011906AA204600F0F4FB4A
:102BA0000444AA480119ADA2204600F0EDFB0444FC
:102BB0001C21284600F07AFC002852D0A3480119B5
:102BC000A7A2204600F0E0FB04440421284600F0C0
:102BD0006DFCA8B100F0A6F904909C4801192046AC
:102BE000049A00F0D1FB04441821284600F05EFC52
:102BF00030B19648011999A2204600F0C5FB044463
:102C00000821284600F052FCA8B100F083F9049096
:102C10008E4801192046049A00F0B6FB04441021A6
:102C2000284600F043FC30B1884801198BA22046A9
:102C300000F0AAFB04441021284600F037FC48B1FC
:102C400000F06CF90490814801192046049A00F0C4
:102C50009BFB04447D48011982A2204600F094FBAE
:102C6000044420212846169A00F084FC60B94246AC
:102C70004021284600F07EFC30B94A468021284693
:102C800000F086FC002862D07048011976A2204628
:102C900000F07AFB044420212846169A00F06AFCD2
:102CA00008B36A4801192046169A00F06DFB0444E7
:102CB00042464021284600F05DFC38B163480119C6
:102CC0006AA2204600F060FB04440CE04A468021E2
:102CD000284600F05DFC30B15C4801195FA2204637
:102CE00000F052FB04444A468021284600F050FC84
:102CF000C8B14B465EA2052109A8FFF793F85348D7
:102D0000011909AA204600F03FFB04444246402135
:102D1000284600F02FFC30B14C4801194FA2204644
:102D200000F032FB044442464021284600F022FCD9
:102D300030B1464801194246204600F025FB0444C4
:102D4000424801194BA2204600F01EFB0444C4F582
:102D500000713E4A1019059B199AFFF78FF8064635
:102D600000200590A019B0F5007F03D8002E01DBEC
:102D7000344401E04FF40074201D5844B0F5007F46
:102D800004D94FF40074241FA4EB0B042E48807C5C
:102D900058B100202D4908552B4912312B48FDF719
:102DA00004FA10B900F0A2F8A3E6274890F88D00C5
:102DB00030B12648011930A2204600F0E5FA04445B
:102DC000224801192EA2204600F0DEFA04442146D2
:102DD0001E4800F0DBF800F089F800BF89E600002B
:102DE00064000020643A00086C6576656C203C3D08
:102DF00020454C4F475F4C564C5F564552424F530F
:102E000045000000282573292068617320617373D1
:102E1000657274206661696C656420617420257335
:102E20003A256C642E0000002E2E5C534F465457FA
:102E30004152455C656C6F675C656C6F672E630023
:102E4000656C6F67000000004C010020DC01002071
:102E50001B5B00004C00002034000020200000001C
:102E60005B0000005D200000280000003A00000028
:102E7000256C6400290000001B5B306D0000000021
:102E80000D0A000010B5084890F88A0030B100F033
:102E90008BF80120044981F88C0003E001200249ED
:102EA00081F88B0010BD00004C01002010B50446D5
:102EB0000D4880F88A4090F88A00A0B10A4890F83E
:102EC0008C0030B9084890F88B0010B100F06CF815
:102ED00009E0054890F88C0028B1034890F88B0071
:102EE00008B900F063F810BD4C01002010B5084887
:102EF00090F88A0030B100F059F80020044981F8B8
:102F00008C0003E00020024981F88B0010BD000016
:102F10004C01002000A070470000000000A0704796
:102F20000000000010B58CB004AC202104A8FDF70F
:102F300031F9FEF70DFB0B4880780A494978094AB8
:102F40001278084BDB79CDE90032CDE90210054853
:102F50008379828804A104A8FEF77CFF20460CB088
:102F600010BD0000400100202534642D253032645E
:102F70002D2530326420253032643A253032643ACF
:102F800025303264000000000020704770B5044610
:102F90000D462246294602A0FEF734FF70BD000010
:102FA000252E2A730000000072B6704762B6704783
:102FB00010B586B00446052C1CDD104800680028BA
:102FC00011D14FF4AC700E490EA215A3CDE9031038
:102FD000CDE9013200900B461AA220A10020FFF794
:102FE0004FFD00BFFEE74FF4AC72054905A0034B4F
:102FF0001B6898471B48047006B010BD6400002091
:10300000203A00086C6576656C203C3D20454C4FAD
:10301000475F4C564C5F564552424F5345000000A7
:103020002825732920686173206173736572742089
:103030006661696C65642061742025733A256C644F
:103040002E0000002E2E5C534F4654574152455CD3
:10305000656C6F675C656C6F672E6300656C6F678E
:10306000000000004C01002010B5002400BF19E052
:1030700004EB440101EB04120C491144481C1121DA
:10308000FDF788F8002104EB440000EB0412074828
:10309000815404EB440000EB041204481044817492
:1030A000601CC4B2042CE3DB10BD00006F010020E3
:1030B00030B585B004460D46052C1CDD104800686F
:1030C000002811D14FF49F700E490FA215A3CDE92E
:1030D0000310CDE9013200900B461BA220A1002075
:1030E000FFF7CEFC00BFFEE74FF49F72054906A034
:1030F000034B1B6898471C4840F8245005B030BD6E
:1031000064000020033A00086C6576656C203C3D45
:1031100020454C4F475F4C564C5F564552424F53EB
:1031200045000000282573292068617320617373AE
:10313000657274206661696C656420617420257312
:103140003A256C642E0000002E2E5C534F465457D7
:103150004152455C656C6F675C656C6F672E630000
:10316000656C6F6700000000BC01002010B586B0E0
:103170000446002C1ED0012C1CD0114800680028E9
:1031800011D140F213100F490FA219A3CDE903107A
:10319000CDE9013200900B461EA224A10020FFF7CA
:1031A0006FFC00BFFEE740F21312064906A0044B75
:1031B0001B6898471F4880F8894006B010BD000082
:1031C00064000020CF39000828656E61626C656478
:1031D000203D3D2066616C736529207C7C2028653C
:1031E0006E61626C6564203D3D20747275652900D6
:1031F00028257329206861732061737365727420B8
:103200006661696C65642061742025733A256C647D
:103210002E0000002E2E5C534F4654574152455C01
:10322000656C6F675C656C6F672E6300656C6F67BC
:10323000000000004C01002010B586B00446002CB0
:103240001ED0012C1CD011480068002811D140F27A
:103250001F100F490FA219A3CDE90310CDE90132C8
:1032600000900B461EA224A10020FFF709FC00BF1E
:10327000FEE740F21F12064906A0044B1B68984760
:103280001F4880F88D4006B010BD0000640000208B
:10329000E739000828656E61626C6564203D3D2059
:1032A00066616C736529207C7C2028656E61626C88
:1032B0006564203D3D2074727565290028257329B9
:1032C0002068617320617373657274206661696C34
:1032D00065642061742025733A256C642E0000001B
:1032E0002E2E5C534F4654574152455C656C6F67B8
:1032F0005C656C6F672E6300656C6F670000000093
:103300004C0100200EB50B4890F8880000B90EBDA6
:103310000120FFF72BFF08A009A1F422124BCDE9F1
:103320000021029011A217A10320FFF7A9FB00BF03
:10333000EDE700004C010020322E322E393900001A
:10334000456173794C6F67676572205625732069F4
:103350007320696E697469616C697A65207375633D
:10336000636573732E000000BA3900082E2E5C537B
:103370004F4654574152455C656C6F675C656C6F96
:10338000672E6300542E5400F0B585B006460D46F6
:1033900014462746002D19D12448006880B92C20F6
:1033A000234924A224A3CDE90310CDE901320090E2
:1033B0000B462AA231A10020FFF762FB00BFFEE707
:1033C0002C221B491BA0194B1B689847002C19D1B4
:1033D0001648006880B92D2015492AA216A3CDE908
:1033E0000310CDE9013200900B461CA223A100205E
:1033F000FFF746FB00BFFEE72D220D4921A00B4B36
:103400001B6898470AE03046761CB0F5007F04D26E
:1034100014F8010B05F8010B00E002E02078002809
:10342000F1D100BFE01B05B0F0BD0000640000203A
:103430009C3A00086473740028257329206861731E
:1034400020617373657274206661696C65642061C4
:10345000742025733A256C642E0000002E2E5C53D8
:103460004F4654574152455C656C6F675C656C6FA5
:10347000675F7574696C732E63000000656C6F671D
:10348000000000007372630070B504460D46E1B29F
:103490000548FEF7B0FC00BF40210348FEF7DEFB05
:1034A0000028F9D0204670BD0038014030B585B005
:1034B00004460D46052C1CDD13480068002811D178
:1034C00040F2DD20114912A218A3CDE90310CDE985
:1034D000013200900B461EA223A10020FFF7D0FA74
:1034E00000BFFEE740F2DD22084909A0064B1B6839
:1034F00098471F4850F82400284010B1012005B01B
:1035000030BD0020FBE7000064000020703A000896
:103510006C6576656C203C3D20454C4F475F4C56B2
:103520004C5F564552424F534500000028257329F1
:103530002068617320617373657274206661696CC1
:1035400065642061742025733A256C642E000000A8
:103550002E2E5C534F4654574152455C656C6F6745
:103560005C656C6F672E6300656C6F670000000020
:10357000BC01002070B505460E46144634B13146F4
:103580002846FFF793FF08B1012070BD0020FCE73B
:1035900070B505460E46144634B131462846FFF74D
:1035A00085FF08B1012070BD0020FCE788B04FF412
:1035B000A060FDF7A9FEFDF74FFEFFF7EFF84FF40F
:1035C000E13000F04BF9FEF7BFF8FFF731FA0521C3
:1035D0000020FFF76DFD05210120FFF769FD0521A2
:1035E0000220FFF765FD05210320FFF761FDE521BE
:1035F0000420FFF75DFD05210846FFF759FDFFF7A1
:1036000081FE002000900F230A220921019040F240
:10361000E970FEF709F900F075F9FEF71BFA48A00A
:10362000C9214F4B4FA2CDE9001050A10320FFF755
:1036300027FAFDF761FA4EA0CE21494B49A2CDE908
:1036400000104AA10320FFF71BFA5020FDF7A2FD4E
:1036500050B14EA0D021424B42A2CDE9001043A16F
:103660000320FFF70DFA09E052A0D2213C4B3DA206
:10367000CDE900103DA10320FFF702FA6820FDF715
:1036800089FD50B156A0D621354B36A2CDE90010A8
:1036900036A10320FFF7F4F909E058A0D821304BF8
:1036A00030A2CDE9001031A10320FFF7E9F9FDF7C1
:1036B00057F8044654B959A0E121294B29A2CDE974
:1036C00000102AA10320FFF7DBF909E057A0E3214E
:1036D000234B24A2CDE9001024A10120FFF7D0F94B
:1036E00057A103C9CDE90601082206A91020FDF75C
:1036F00067F80020039004900590082203A9102089
:10370000FCF7EAFF03A850A1ED22154BCDE90021FB
:10371000029014A215A10320FFF7B2F90FE0FFF702
:10372000BFF84D48006808B9012000E000204A4970
:10373000086040F2DC50FFF753F8FFF7CBF8EEE7F4
:103740003D3D3D2049324320446576696365205301
:1037500063616E2050726F6772616D203D3D3D0068
:10376000483900086D61696E2E630000542E5400C4
:1037700054657374696E6720737065636966696305
:1037800020646576696365733A0000004154323401
:1037900043303420454550524F4D2070726573655B
:1037A0006E742028416464726573732030783530FC
:1037B00029000000415432344330342045455052F2
:1037C0004F4D206E6F742070726573656E74202883
:1037D00041646472657373203078353029000000CD
:1037E0005254432070726573656E7420284164647E
:1037F00072657373203078363829000052544320A4
:103800006E6F742070726573656E742028416464F5
:103810007265737320307836382900004154323491
:10382000433032206973206F6B2E000041543234D4
:103830004330322074657374206661696C21000026
:103840003132333435363738656570726F6D2064C8
:103850006174613A25730000B401224210B586B04C
:103860000446012144F20400FDF780FD2348FEF7E1
:10387000A7F94FF40070ADF8140003208DF816007E
:1038800018208DF8170005A91D48FDF715F84FF40D
:103890008060ADF8140004208DF8170005A91848C1
:1038A000FDF70AF825208DF8000003208DF80100AF
:1038B0008DF8020001208DF803006846FDF7ECFC4E
:1038C00001940020ADF80800ADF80A00ADF80C0036
:1038D000ADF810000C20ADF80E0001A90748FEF766
:1038E00019FA012240F225510448FEF7EEF90121B0
:1038F0000248FEF759F906B010BD0000003801403B
:103900000008014008B501210420FDF72FFD1E200D
:10391000ADF8000010208DF8030003208DF80200A0
:1039200069460848FCF7C8FF10210648FDF758F81B
:1039300004210448FDF756F802210248FDF752F829
:1039400008BD0000000801406D61696E00000303BE
:103950000601040602050003051F1C1F1E1F1E1F73
:103960001F1E1F1E1F4932435F5363616E446576FD
:1039700069636573004932435F5363616E5F5368E7
:103980006F77446576696365496E666F00493243B7
:103990005F517569636B5363616E004932435F41E8
:1039A0006476616E6365645363616E004932435FA0
:1039B0004275735F436865636B00656C6F675F7327
:1039C0007461727400656C6F675F73746F7000650B
:1039D0006C6F675F7365745F6F75747075745F6526
:1039E0006E61626C656400656C6F675F7365745FC0
:1039F000746578745F636F6C6F725F656E61626C23
:103A0000656400656C6F675F7365745F666D7400F5
:103A1000656C6F675F7365745F66696C746572006F
:103A2000656C6F675F7365745F66696C7465725F00
:103A30006C766C00656C6F675F7365745F66696C4C
:103A40007465725F7461675F6C766C00656C6F673C
:103A50005F6765745F66696C7465725F7461675FE8
:103A60006C766C00656C6F675F6F75747075740051
:103A70006765745F666D745F656E61626C65640036
:103A8000656C6F675F66696E645F6C766C00656C11
:103A90006F675F66696E645F74616700656C6F670E
:103AA0005F73747263707900656C6F675F637079C0
:103AB0006C6E00656C6F675F6D656D63707900009B
:103AC000412F0000442F0000452F0000492F000027
:103AD000562F0000572F000033313B32326D00006B
:103AE00033323B32326D000033333B32326D0000F3
:103AF00033343B32326D000033353B32326D0000DF
:103B000033363B32326D0000283B000800000020B5
:103B100078000000A81E0008A03B000878000020E4
:103B200068070000B81E000800000000010203043E
:103B30000102030406070809020406080000000049
:103B40000000000000A24A04000000000000000085
:103B5000010203040607080900000000C03A00083B
:103B6000C83A0008D43A0008CC3A0008C43A000821
:103B7000D03A0008F83A0008D83A0008E83A0008B5
:103B8000003B0008E03A0008F03A0008000000009E
:103B90000000000000000000000000000000000025
:04000005080000ED02
:00000001FF
